:10000000382D0020A9160000A5160000A516000036
:1000100000000000000000000000000000000000E0
:10002000000000000000000000000000A516000015
:100030000000000000000000A5160000A51600004A
:10004000A5160000A5160000A5160000D5020000A8
:10005000A5160000A5160000A5160000A5160000B4
:10006000A51600008101000091010000A10100001F
:10007000B1010000C1010000D1010000A51600007F
:10008000A5160000A5160000A5160000A516000084
:10009000A51600000000000000000000A5160000EA
:1000A000A516000000000000A516000000000000DA
:1000B0000000000010B5064C2378002B07D1054B3B
:1000C000002B02D0044800E000BF0123237010BDC4
:1000D0006800002000000000A825000008B5084BBB
:1000E000002B03D00748084900E000BF0748036819
:1000F000002B00D108BD064B002BFBD09847F9E739
:1001000000000000A82500006C000020A8250000C9
:10011000000000007047C046F0B50A4B1B78002B6A
:100120000CD1094F094E0A4D0024DE515A191460B2
:100130000433182BF9D10122024B1A708000024BB4
:10014000C150F0BD8400002088000020150100008F
:100150000801002010B582B0041C6846054906223B
:10016000054B9847201C054B98476B46185602B024
:1001700010BDC046B8240000891A0000CD10000050
:1001800008B5024B1B680020984708BD8800002076
:1001900008B5024B5B680120984708BD8800002025
:1001A00008B5024B9B680220984708BD88000020D4
:1001B00008B5024BDB680320984708BD8800002083
:1001C00008B5024B1B690420984708BD8800002031
:1001D00008B5024B5B690520984708BD88000020E0
:1001E000F0B5474680B40C1C9046002810D1002A78
:1001F0000ADD8F18094E0A4D3068211C2B6898477C
:100200000134BC42F8D101E000239846404601E0A9
:100210000120404204BC9046F0BDC04628010020A9
:1002200020010020F0B5474680B40138022815D8D7
:10023000002A10D0151C0E1C00240C4B98460C4FA5
:1002400043461868315D3B689847002809DB013454
:10025000A542F5D100E00024201C04E0012040422A
:1002600001E00120404204BC9046F0BD280100207E
:1002700024010020134A138801339BB21380124BD0
:100280001B889BB2F422FF32934215D90F4B1B7887
:10029000002B04D0802212030D4B9A6103E08022D0
:1002A00012030B4B5A61094A117801234B4013701A
:1002B0000022054B1A8004E0034A138801339BB2E5
:1002C000138070472C010020A00000202E01002088
:1002D0000044004108B5064B197A01220A431A72FC
:1002E0001A7A802149420A431A72024B984708BD84
:1002F00000140040750200001E4B1F4A5A60812204
:1003000052009A601D4A5A801D4B19881D4A0A40A6
:100310001A801A880C218A431A801A880B398A435A
:100320001A80198880220A431A80D9798020404295
:100330000143D971D97901221143D971197A0A433C
:100340001A721A7A02431A7200221A6120329A61D2
:1003500019881E3A0A431A800B4AC0218900535853
:100360001B021B0AC02000060343535008231360DE
:100370007047C046000C0040020401000442000027
:1003800000140040FFF0FFFF00E100E0F0B55F4621
:1003900056464D464446F0B491B0051C0C1C161C44
:1003A0002960081CB94B984722680523D20700D55D
:1003B00063E122681733920700D55EE1B4490A6A07
:1003C000871C1B3BBB4013430B620FA92D27F35D1A
:1003D0000B701430C3B20293181CAE4B98470298AE
:1003E000AD4B9847F05D0021AC4B9847F37A6B71A9
:1003F0002423F35CAB712523F35CEB71F37E2B724A
:10040000337F6B722B689A46181CA04B98471430A8
:1004100000220E2306A98C4663441A80338A99462B
:100420008023DB01994519D004D880239B0199458D
:100430000AD003E1C023DB0199450AD080231B02C7
:10044000994500D1FFE0F9E0102398460F3B079350
:10045000FDE008239846073B0793F8E033689B4686
:10046000F368029373690393337E04932623F35C4A
:10047000059372680692002A15D080235B059A4284
:1004800036D12723F35C002B36D1336A9846C0B2AD
:10049000834B9847011C40460E2206AB9C466244A3
:1004A000804B984725E0082398460023079327238D
:1004B000F35C002B0BD043460093306AB16A0E22E6
:1004C00006AB9C466244079B774FB84711E0336AFE
:1004D0001F1CC0B2724B9847011C43460093381C46
:1004E0000E2206AB9C466244079B6F4FB84700E064
:1004F0000020031E00D0C0E0737E002B02D0B37E2C
:10050000524693732A68069FD369002BFCD10E33A1
:1005100006AA944663441B8852469381029B5A461E
:100520001343039A13433B434A461343049A12026C
:100530001343059A57071F432723F35C002B01D170
:1005400004331F43337F5902727E93020B43727F41
:10055000120213432422B25C520413432522B25CDC
:1005600012041343F17A19433389FF2B04D08022FC
:1005700052041743194305E0F37E002B02D0802379
:10058000DB041F432C23F35C002B03D1474B9B78E8
:100590009B0701D580231F432A68D369002BFCD118
:1005A000534659602A68D369002BFCD153461F601B
:1005B0000EAB80221A7000225A70DA709A70336B78
:1005C0000A93736B0B93B36B0C93F36B02930D93C2
:1005D00000270EAEF9B2BB000AAA9858002802D133
:1005E000201C334B9847431C05D03070000CC0B220
:1005F000311C304B98470137042FEBD10023EB60BF
:100600002B616B61AB61EB612B62AB626B620022B1
:10061000EB85AB853033EA540133EA540133EA54B5
:100620000133EA542868194B9847041C2249234B8C
:100630009847A400224BE55000231EE01023984663
:100640000023079303E003239846002307933368AE
:100650009B46F368029373690393337E04932623C6
:10066000F35C059372680692002A00D11FE780238D
:100670005B059A4200D104E73EE7181C11B03CBC70
:1006800090469946A246AB46F0BDC046CD1000004C
:10069000000400404D150000C1140000F90E0000D8
:1006A00069150000090D0000310D00000020004117
:1006B000450F000045160000D90700001901000091
:1006C0000801002010B50368C4791C22002C0DD04D
:1006D000C08D80B2173A002808D1DA69002AFCD10F
:1006E000198502211A7E0A42FCD00022101C10BD7E
:1006F00010B5046882791C23002A2FD0828D92B213
:10070000173B002A2AD1227E520727D5E369002B06
:10071000FCD1638BDBB29A061DD09A0703D5022366
:10072000638318331AE05A0703D5042363831A330B
:1007300014E0DA0703D50123638312330EE0DA06EF
:1007400003D510236383323308E09B0603D52023AF
:100750006383213302E0238D0B800023181C10BD1E
:10076000F8B5041C0D1C161C07680F4B9847A38D89
:100770009BB2002B03D00D4B9847052013E0A685B4
:100780000A4B9847656205223223E2542E3BBB7523
:10079000237A002B01D02023BB75637A0020002B25
:1007A00001D00823BB75F8BD3D0C00007D0C000096
:1007B000931C9B00C3185960012393401A1C3021DD
:1007C000435C1A434254704708B50122014B9847D5
:1007D00008BDC04661070000F8B58000604BC558F1
:1007E0002C68E369002BFCD1237EA67D1E403123BB
:1007F000EB5C3022AF5C1F40F30722D5EB8D9BB240
:10080000002B1CD0AA6A1378DBB2511CA96269794B
:10081000012901D09BB204E0517809020B43023256
:10082000AA62DB05DB0D2385EB8D013B9BB2EB85DB
:10083000002B06D1013323750133A37501E0012399
:100840002375B30709D50223237500223133EA54F7
:10085000FB0702D5281CEB689847730760D5AB8D62
:100860009BB2002B5AD0638BDBB21A0702D43F2213
:10087000134001E037221340002B2DD09A0705D5F5
:100880001A223223EA54303B63831FE05A0705D50E
:100890001E223223EA542E3B638317E0DA0705D584
:1008A00013223223EA54313B63830FE0DA0605D585
:1008B00042223223EA54223B638307E020221A4279
:1008C00004D021323223EA54123B63837B0727D5BD
:1008D000281C6B69984723E0238DDB05DB0DDAB21A
:1008E000696A0A706A6A511C69626979012904D1CE
:1008F0001B0A53706B6A01336B62AB8D013B9BB279
:10090000AB85002B0CD10433237500222E33EA541F
:10091000BB0705D5281C2B69984701E004232375E4
:10092000F30607D5102323752376FB0602D5281C72
:10093000EB699847B30607D52023237523763B0739
:1009400002D5281CAB699847330707D508232375C0
:100950002376BB0602D52B6A281C9847F8BDC046F3
:10096000080100207047C04610B5094C0948211CF9
:10097000094B9847094B0A495A5CD2B22078C0B259
:1009800098545A5C0132D2B25A545B5C10BDC046D6
:100990006401002030010020C90700006801002028
:1009A000B80B0000044A054BD35C0549505C181A8B
:1009B000431E9841C0B2704768010020B90B000087
:1009C000B80B000008B5084B98470023002809D051
:1009D000064A0748135CDBB2D35C115C0131C9B233
:1009E0001154125C181C08BDA50900006801002004
:1009F000B90B000070B590B0334900230022334892
:100A00000B5433480B548021C90500910193FF21F9
:100A1000684601818372C372012124206C462154EF
:100A20000130215425316354013163540A93053157
:100A300063540131635405932382E376227622774F
:100A400062761323A3766277E1231B020893802347
:100A50005B0303931F4B0C931F4B0D9301235B42CE
:100A60000E930F931D4E1E4D1E4C301C291C6A46C2
:100A7000A0470028F9D1194D2C68201C1A4B984723
:100A80001F2318401E3B8340181C184B18602A680F
:100A9000D369002BFCD122680233134323600F4C2F
:100AA000201C13490022134DA847201C1249012283
:100AB000A8473122A15C03230B43A354201C0F49F8
:100AC0000F4B984710B070BD68010020B90B0000B3
:100AD000B80B0000030010000300110030010020DB
:100AE000001400428D0300005501000000E100E009
:100AF00065090000B10700006909000064010020D9
:100B0000C907000070B582B0051C0E1C00226B46A0
:100B1000DA80064C281C6B46991DA0470028F9D1A5
:100B20006B4606331B88337002B070BDF1060000BF
:100B300070B5051C8CB2034E281C211CB047002840
:100B4000FAD170BDC5060000F0B591B08023DB0579
:100B5000009300230193FF2269460A8100228B72D1
:100B6000CB7201242421684644540131445401319C
:100B70004354013143540A930531435401314354E2
:100B800005930382C3760276027742761323837637
:100B9000427780235B0303931A4B0C931A4B0D93FC
:100BA00001235B420E930F93E1231B020893174D21
:100BB000174B1D60174A184B1A60184A184B1A60D9
:100BC000281C18496A46184B9847184F3B68986884
:100BD0000021174EB0473B6858680021B0472E6887
:100BE000301C144B98471F2318408440124B1C6044
:100BF0002A68D369002BFCD1326802331343336077
:100C000011B0F0BD0300040003000500A4000020A3
:100C100028010020310B000024010020050B0000FA
:100C200020010020000800428D0300006400002025
:100C3000D51A00005501000000E100E00C4B1B68D4
:100C4000002B10D1EFF31083002B09D172B6BFF344
:100C50005F8F0022074B1A700132074B1A7002E0B7
:100C60000022054B1A70024A136801331360704763
:100C7000D800002000000020DC000020084B1A688B
:100C8000013A1A601B68002B09D1064B1B78002B18
:100C900005D00122044B1A70BFF35F8F62B6704714
:100CA000D8000020DC00002000000020F0B583B058
:100CB00001AC012565700027A77025701320211C49
:100CC000064EB04780221203054B9A61277065706B
:100CD0001C20211CB04703B0F0BDC046E50C00004D
:100CE0000044004100B583B001AB80221A700A783D
:100CF0005A704A789A708A78DA70191C014B9847B2
:100D000003B000BD4516000010B5490840248142DB
:100D10000CD30023091A01339BB28842FAD9013B54
:100D20009BB24024FF2B01D813800024201C10BD4F
:100D3000F0B55F4656464D464446F0B489B01C1C9B
:100D400012AB1B78061C5E4340258E4200D9C7E0DB
:100D5000251C07920C1C021C002D51D1181C0021CF
:100D60000023634DA8478346261C00270023002448
:100D700002930394002200233F2020218C461F3938
:100D80000096019720246442041903D40D1CA54049
:100D9000A84604E06446241A0D1CE540A8460C1C35
:100DA0008440A146141C1D1CA4185D41221C2B1C50
:100DB0005E4647463E4203D00E1C2643321C2B1C87
:100DC000019C9C4210D802D1009C94420CD8009CFB
:100DD000019D121BAB414D46029E039F35433C1CB7
:100DE00046463443029503940138CBD200220123B6
:100DF00002980399121A8B41110C1B0419436CE0E1
:100E00000021012D69D1610F0F1CE1008846181CDB
:100E100000210023364CA047041C0D1C00239C46D7
:100E200020339B46012663460593B9466B461B7DDE
:100E3000069300239C46002000213F220094019548
:100E400020235B42D31803D4341C9C40231C04E0B1
:100E50005B469B1A341CDC40231C371C9740041C47
:100E60000D1C24184D41201C291C0290039144465E
:100E70003C40A2464C4623405446234305D0029BA7
:100E8000039C1D1C3543281C211C019B8B420AD846
:100E900002D1009B834206D8009B019CC01AA1414D
:100EA00063463B439C46013ACAD2009C019D624680
:100EB0000599531ADB080F4A934208D9069A013262
:100EC000D2B206920A1C01320592082AAED1402500
:100ED000069A082A04D051031943079B198000255C
:100EE000281C09B03CBC90469946A246AB46F0BDD2
:100EF000E9190000FF1F000010B582B0041C0E4B62
:100F00001B78002B01D000290DD001A90C701320F3
:100F10000A4B984713200A4B9847074B5C700122F5
:100F20001A70002006E0044B5B78834201D01D203C
:100F300000E0002002B010BDE00000204D150000D0
:100F4000C1140000444B984233D006D8434B98421A
:100F50000DD0434B98421BD06FE0424B98424AD091
:100F6000414B984258D0414B984266D132E001291A
:100F700006D0002963D0022906D0032906D001E05B
:100F80003B4867E0002065E03A4863E03A4861E0AA
:100F9000012906D0002954D0022906D0032906D001
:100FA00001E0364856E0002054E0354852E035482C
:100FB00050E0012906D0002945D0022906D0032996
:100FC00006D001E0304845E0002043E02F4841E0F2
:100FD0002F483FE0012906D0002936D0022906D04B
:100FE000032906D001E02B4834E0002032E02A48F3
:100FF00030E02A482EE0012906D0002927D0022916
:1010000006D0032906D001E0254823E0002021E096
:1010100024481FE024481DE0012906D0002918D0EB
:10102000022906D0032906D001E0204812E0002062
:1010300010E01F480EE01F480CE000200AE01E48A8
:1010400008E0032006E01D4804E01D4802E01D48BA
:1010500000E01D487047C0460010004200080042F2
:10106000000C004200180042001C00420014004224
:101070000300050003000600030007000300010051
:1010800003001E0003001F0002000D0002000E00FE
:1010900002000F0003001100030012000300130000
:1010A00005003F0005003E00050052000300170048
:1010B00003001800030019000300040002000C00E4
:1010C00003001000050053000300160030B587B080
:1010D0000C4B6A4632CB32C232CB32C2009B8342C7
:1010E00006D001239A0069465258824203D100E09B
:1010F0000023D8B203E00133062BF3D1002007B060
:1011000030BDC046C024000008B5082803D88000C0
:101110001B4B1B589F46002031E01A4B18692EE0EC
:10112000194B186A8005800F184BC340181C26E025
:10113000144B586923E0134B1B68022018401ED043
:1011400011491022CB681A42FCD00E4B1B685B077A
:1011500014D500200E4B98470A4B9B681B041B0CB0
:1011600058430CE05023084AD35C00205B0706D5A7
:10117000044BD86803E08020000200E0054808BD69
:10118000D8240000E40000200008004000127A008B
:1011900069150000006CDC0270B50C4C236A017804
:1011A000857842780120024092014026B3431343E0
:1011B000021C2A40D2017F308343134303220A409A
:1011C000120203490B401343236270BD0008004024
:1011D000FFFCFFFF082803D88000254B1B589F46C3
:1011E000172044E0234A116A02230B4313620020B4
:1011F0003DE0204A916902230B439361002036E0D1
:101200001C4A118A02230B43138200202FE0194A43
:10121000918A02230B439382002028E016490B6831
:10122000022213430B60134B9A84191C0E32CB68B5
:101230001A42FCD0104A91680E4BD96252689A62E9
:1012400000229A84191C1032CB681A42FCD00A4B37
:101250001B689BB2074A9384002008E0054944229A
:10126000885C022303438B54002000E00020704779
:10127000FC24000000080040E400002030B585B0E8
:10128000C222D2001A4B9A601A4A53681E218B431D
:10129000536001236A4613700024174DE0B269467B
:1012A000A8470134252CF9D103A800244470012556
:1012B00085700470114B98470620114B9847114BCD
:1012C0009847114B1C725C729C72DC7201956B46E4
:1012D0005C7006236A4613701472547200206946CB
:1012E0000A4B984700200A4B984705B030BDC046CE
:1012F00000080040004000414D1500009911000019
:10130000D51100001513000000040040391300003F
:10131000F1130000064A916908230B4393610122EF
:10132000044B1A70191C0B781342FCD17047C0464D
:1013300000040040000C004070B5061C041C0D7831
:101340002D0205434B78002B02D08023DB021D4386
:101350004B7A002B02D080231B031D4348680128D1
:1013600018D9431E184210D1022806D902230022A0
:1013700001325B009842FBD800E0002212023243A7
:10138000141C80235B031D4304E0040234438023C8
:101390009B021D430B7A002B02D080239B031D432D
:1013A0000F4A53785BB2002BFBDB0E4B98470E4B7A
:1013B0001E700B4A53785BB2002BFBDB084B9C6022
:1013C0001A1C53785BB2002BFBDB054A5168802363
:1013D0005B020B401D435560044B984770BDC046EF
:1013E000000C00403D0C0000080C00407D0C00008B
:1013F00010B5041C0B4A53785BB2002BFBDB0A4B85
:1014000098470A4B1C70074A53785BB2002BFBDBF2
:10141000044A5368802149020B435360044B9847A8
:1014200010BDC046000C00403D0C0000040C004004
:101430007D0C000070B5041C1A4A53785BB2002B77
:10144000FBDB194B9847194B1C70164A53785BB25B
:10145000002BFBDB134E7068C004C00E144B984782
:10146000051C124B1C707668F602F60F114B1C70AF
:101470000C4A53785BB2002BFBDB0A4B9C68240AB6
:10148000A4B20D4B9847002E07D1012C07D9281C78
:10149000211C0A4B9847051C01E00134E540281C3B
:1014A00070BDC046000C00403D0C0000040C004024
:1014B00009110000080C00407D0C0000C518000058
:1014C00010B5041C064B9847064B1C70064A518801
:1014D0008023DB010B435380044B984710BDC0466B
:1014E0003D0C0000020C0040000C00407D0C000090
:1014F00010B5041C0F4B98470F4B1C700F4B5A88AC
:101500001205100F59880E4A0A405A8059880D4A10
:101510000A405A80191C8022D2014B881342FCD108
:10152000064902024888064B034013434B80064B92
:10153000984710BD3D0C0000020C0040000C00401C
:10154000FFF0FFFFFFBFFFFF7D0C000010B50C7820
:1015500024020443024B9847A4B2024B5C8010BDA6
:10156000F1140000000C004010B5041C064B984715
:10157000064B1C70064B5C882405240F054B9847CE
:10158000201C054B984710BD3D0C0000020C00408C
:10159000000C00407D0C00003514000030B5D378FD
:1015A000002B1ED11478802C04D0240680235B02EB
:1015B0001C4300E0002453780225AB430AD1937802
:1015C000002B03D180239B021C4302E0C023DB02DB
:1015D0001C4341605378013B012B12D8184B1C402F
:1015E0000FE041600B041B0CA024E405234383623D
:1015F0000B0CD024240623438362D378002B18D00D
:101600001CE00B041B0CA025ED052B432343836238
:101610000B0CD0252D062B4323438362D378002B5C
:101620000CD1630305D59378012B01D1816100E0D2
:1016300041615378013B012B00D8816030BDC04629
:10164000FFFFFBFF08B5031C0A1CC109002000298D
:1016500004D15809C00105498C4660441F210B4044
:101660001E399940024B984708BDC04600440041CE
:101670009D1500007047C04608B5054B9847054BBF
:101680009847054B9847054B9847054B984708BD29
:101690007D120000AD0C00007516000075160000EC
:1016A00075160000FEE7C04670B52E4B2E4A9A42D2
:1016B00003D02E4B2B4A9A4204D32D4B2D4A9A42EB
:1016C00010D31EE02C4A294B03339B1A9B0801338D
:1016D0009B000022234824498C58845004329A42AB
:1016E000FAD1EAE7254A224B03339B1A9B080133C0
:1016F0009B0000221F4800211418216004329A42E6
:10170000FAD11F4AFF211F4B8B439360FD39902371
:101710005B001D4AD1501D48C3780324A343022215
:101720001343C370C3780C26B34308210B43C37023
:10173000174B987B3025A843051C2020284398731D
:10174000987BB04301439973997BA1430A439A73F1
:10175000104A516880230B4353600F4B98470F4B3F
:101760009847FEE700000020A82500006800002040
:10177000340D002068000020040000206C000020D0
:1017800000ED00E00000000000700041005000414A
:1017900000480041004000413D1A0000F9170000D8
:1017A000031C064A1268002A02D10549034A116047
:1017B000024A1068C31813607047C046FC0000203E
:1017C000382D0020012040427047C04680239B01F5
:1017D0004B6000207047C0460120704700207047D2
:1017E000031C80221201811800201A788018C0B2D0
:1017F00001338B42F9D17047F0B55F464E464546FE
:10180000E0B4254CA544254B9847254B9847254BDC
:101810009847254B9847254B1B681A7ED20736D52B
:1018200000229A6233E002A95B5401339342FAD159
:101830001F4B99461F4B9B461F4B984600271EE0A7
:101840001E4B9F4204D81C4B984702ABD85514E05E
:1018500002A8D8470190041CC04784420DD102ACB5
:1018600080263601A4466644154D2078A8470134E9
:10187000B442FAD10198124B98477B1C9FB2C847DB
:101880000028DDD180231B019F42D7D8F7E7002332
:1018900080221201C7E7C046F8F7FFFF7916000063
:1018A000490B0000F5090000F9020000240D00209A
:1018B000A5090000E1170000C5090000FF070000AE
:1018C000AD1A0000002243088B4274D303098B42F7
:1018D0005FD3030A8B4244D3030B8B4228D3030C00
:1018E0008B420DD3FF22090212BA030C8B4202D3A2
:1018F0001212090265D0030B8B4219D300E0090ACA
:10190000C30B8B4201D3CB03C01A5241830B8B42D2
:1019100001D38B03C01A5241430B8B4201D34B03BB
:10192000C01A5241030B8B4201D30B03C01A524120
:10193000C30A8B4201D3CB02C01A5241830A8B42A5
:1019400001D38B02C01A5241430A8B4201D34B028E
:10195000C01A5241030A8B4201D30B02C01A5241F2
:10196000CDD2C3098B4201D3CB01C01A52418309A6
:101970008B4201D38B01C01A524143098B4201D3E0
:101980004B01C01A524103098B4201D30B01C01A0B
:101990005241C3088B4201D3CB00C01A5241830885
:1019A0008B4201D38B00C01A524143088B4201D3B2
:1019B0004B00C01A5241411A00D201465241104612
:1019C0007047FFE701B5002000F00CF802BDC046EB
:1019D0000029F7D003B5FFF775FF0EBC4243891A03
:1019E0001847C0467047C046F0B54F464646050406
:1019F0002D0C2C1CC0B41704160C3F0C9946030C7C
:101A00007C4375435F4373437D19260CAD199C4697
:101A1000AF4203D980235B029846C4444B465143EE
:101A2000434324042E0C240C2D0466442C1959180D
:101A30008919201C0CBC90469946F0BD0E4B70B520
:101A400000251E1C0D4CE41AA410A54204D0AB00C6
:101A5000F35898470135F8E700F096FD084B00254C
:101A60001E1C084CE41AA410A54204D0AB00F35885
:101A700098470135F8E770BD9425000094250000D3
:101A80009425000098250000002310B5934203D050
:101A9000CC5CC4540133F9E710BD031C8218934297
:101AA00002D019700133FAE77047000038B5084BCF
:101AB000051C1C68002C05D0A369002B02D1201C3A
:101AC00000F05CFA291C201CA26800F0E9FB38BD7C
:101AD0006400002008B54A424A4180235200DB00DE
:101AE00000F002F808BD0000F7B51E1C3C4B041CBA
:101AF0001D680F1C0192002D05D0AB69002B02D18F
:101B0000281C00F03BFA374B9C4201D16C6808E07E
:101B1000354B9C4201D1AC6803E0344B9C4200D170
:101B2000EC68019B022B58D8002E56DB281C211C88
:101B300000F0B6F900236360A361A3891B0603D5F7
:101B4000281C216900F00EFB8322A3899343A38103
:101B5000019B022B13D0002F25D1002E01D180260E
:101B6000F600301C00F0F4FA071E18D18020C000E7
:101B700000F0EEFA071E10D10120404200E00020E4
:101B80000222A3891343A3810023A360231C4733AC
:101B9000236023610123636121E08026F600802217
:101BA000A3891343A381019B012B05D1A389019A2A
:101BB0001A437342A281A3610D4B0020AB62A2893C
:101BC000276027616661130709D503231A40534232
:101BD00053415B421E40A66001E001204042FEBD31
:101BE000640000202825000048250000682500002A
:101BF000F91E000070B5051C0E1C141C002804D032
:101C00008369002B01D100F0B9F9234B9C4201D12B
:101C10006C6808E0214B9C4201D1AC6803E0204B8A
:101C20009C4200D1EC68A369A360A3891B070AD575
:101C30002369002B07D023682269F6B2981A6369DA
:101C400098420FDB08E0281C211C00F02BF800282C
:101C5000F1D0012040421DE0281C211C00F020F999
:101C60000028F6D1A3680130013BA36023685A1C09
:101C700022601E706369984205D0A389301CDB077F
:101C800008D50A2E06D1281C211C00F009F90028CD
:101C9000DFD1301C70BDC04628250000482500005B
:101CA00068250000354B70B51D68061C0C1C002D06
:101CB00005D0AB69002B02D1281C00F05FF9304B36
:101CC0009C4201D16C6808E02E4B9C4201D1AC686B
:101CD00003E02D4B9C4200D1EC68A3899AB2110716
:101CE00023D4D10607D409220120326037321343AE
:101CF000A381404240E0530713D5616B002908D00F
:101D0000231C4433994202D0301C00F02BFA0023EC
:101D100063632422A3899343A3810023636023691F
:101D200023600822A3891343A3812369002B0BD1CD
:101D3000A023A2899B00134080229200934203D0EB
:101D4000301C211C00F0ACF90123A289134005D0FE
:101D50000023A36063695B42A36103E0910700D4A1
:101D60006369A36000202369834205D1130603D56C
:101D700040231A43A281013870BDC0466400002090
:101D8000282500004825000068250000F7B58A894D
:101D9000051C0C1C13075ED44B68002B02DC0B6C7B
:101DA000002B1ADDE76A002F17D000232E682B6066
:101DB00080235B011A4001D0626D15E0281C216A66
:101DC0000123B847021C431C0ED12B68002B0BD0FB
:101DD0001D2B01D0162B02D12E6000205EE0402189
:101DE000A3890B43A38159E0A3895B0706D56368E8
:101DF000D21A636B002B01D0236CD21A0023281C4B
:101E0000216AE76AB847A389421C06D12A68002ADA
:101E100003D01D2A01D0162A19D10022626022693E
:101E20002260DB0405D5431C02D12B68002B00D1B6
:101E30006065616B2E600029CFD0231C443399422A
:101E400002D0281C00F08EF90020606326E04022BA
:101E50001343A38122E00F69002FBED00B680F60EF
:101E6000DB1B01930023920700D14B69A360019B08
:101E7000002BB2DD281C216A3A1C019BA66AB047E0
:101E8000002806DC40220120A38940421343A3819D
:101E900004E0019B3F181B1A0193E8E7FEBD000018
:101EA00038B50B69051C0C1C002B01D100201CE06F
:101EB000002804D08369002B01D100F05FF80B4BA0
:101EC0009C4201D16C6808E0094B9C4201D1AC688E
:101ED00003E0084B9C4200D1EC680C22A35E002B6F
:101EE000E4D0281C211CFFF751FF38BD2825000035
:101EF000482500006825000008B5024900F0AEF84A
:101F000008BDC046A11E0000002310B5041C0360DC
:101F10004360836081814366C28103614361836161
:101F2000191C08225C30FFF7B8FD054B2462636280
:101F3000044BA362044BE362044B236310BDC04611
:101F40003D230000652300009D230000C9230000FD
:101F500070B568254B1E5D430E1C291C743100F0C2
:101F600047F9041E08D000212A1C016046600C308D
:101F7000A0606832FFF791FD201C70BD836913B526
:101F8000002B28D18364C3640365134B134A1B6879
:101F900082620193984201D101238361041C00F005
:101FA0001FF86060201C00F01BF8A060201C00F0EF
:101FB00017F80421E06000226068FFF7A5FFA06821
:101FC00009210122FFF7A0FFE06812210222FFF79A
:101FD0009BFF0123A36113BD24250000F91E00000F
:101FE000F8B51D4B061C1D68AB69002B02D1281CDF
:101FF000FFF7C4FF4835AC686B68013B05D40C2281
:10200000A75E002F10D06834F7E72B68002B06D1AD
:10201000301C0421FFF79CFF2860002801D02D68A8
:10202000E9E70C23336016E00123201C5B42E381C7
:102030000233A38167662760A760676027616761D5
:10204000A7615C30391C0822FFF727FD201C67635D
:10205000A763A764E764F8BD24250000F7B5041C56
:10206000071C002601914834002C16D06368A5682F
:102070000093009B013B00930DD4AB89012B08D941
:102080000E22AB5E013304D0381C291C019B9847FB
:1020900006436835EDE72468E6E7301CFEBD000026
:1020A000F0B58B8991B09B0706D50B1C47330B60AD
:1020B0000B6101234B6145E00C1C0E23C95E061C1D
:1020C000002904DA8023A5891D4010D10CE001AA63
:1020D00000F0A6F90028F5DBF023029D1B021D404D
:1020E000194BED186B425D418027FF0001E0002590
:1020F0004027301C391C00F07BF800280CD1A38944
:102100009A051FD402221343A381231C4733236063
:1021100023610123636115E080220C4BB362A38924
:1021200020601343A38120616761002D0AD00E2334
:10213000E15E301C00F086F9002803D00122A3895B
:102140001343A38111B0F0BD00E0FFFFF91E0000B2
:1021500008B5034B011C186800F04AF808BDC046DA
:102160006400002030B500293ED004390B68002BF4
:1021700000DAC9181D4A1368141C002B02D14B60E9
:10218000116031E099420DD208680A189A4203D1D1
:102190001368C3180B6053684B60216024E08A42C7
:1021A00003D8131C5A68002AF9D11D685C198C42A7
:1021B0000BD10968691858181960904214D1106839
:1021C0005268091819605A600EE08C4202D90C233B
:1021D000036009E008680C18944203D1146852683F
:1021E000001908604A60596030BDC04604010020F3
:1021F000032370B5CC1C9C430834051C0C2C01D265
:102200000C2405E0002C03DA0C2300202B6042E0B4
:102210008C42F9D3204A1368101C191C002913D0D2
:102220000A68121B0DD40B2A02D90A608B181FE012
:102230008B4202D15A6802601BE04A685A600B1C4C
:1022400017E00B1C4968E9E7144E3368002B03D1F3
:10225000281C00F061F83060281C211C00F05CF89C
:10226000031C421CD0D00322C61C964386420AD1CE
:102270001C60181C07210B301A1D8843821A0AD0D3
:102280005142995007E0311A281C00F045F8431CD0
:10229000BAD0331CECE770BD04010020000100201F
:1022A00070B5051C0E1C141C002804D08369002B7B
:1022B00001D1FFF763FE154B9C4201D16C6808E029
:1022C000134B9C4201D1AC6803E0124B9C4200D1FD
:1022D000EC68A368013BA360002B10DAA26993426B
:1022E00007DB23681E70236819780A290AD1281C85
:1022F00001E0281C311C221CFFF77CFC05E0236850
:102300001E7023685A1C2260187870BD28250000B2
:10231000482500006825000038B50023064C051C40
:10232000081C2360FFF73CFA431C03D12368002BF1
:1023300000D02B6038BDC046300D002038B50C1CD5
:102340000E25495F00F0A4F8002803DB636D1B181D
:10235000636503E0A289024B1340A38138BDC046E8
:10236000FFEFFFFFF8B51E1C8B89051C0C1C171C0A
:10237000DB0505D50E23C95E0022022300F074F8A8
:10238000A289054B281C1340A3813A1C0E23E15E51
:10239000331C00F01FF8F8BDFFEFFFFF38B50C1C31
:1023A0000E25495F00F060F8A389421C03D1054A5D
:1023B0001340A38104E0802252011343A38160658E
:1023C00038BDC046FFEFFFFF08B50E23C95E00F021
:1023D00015F808BD38B5051C0020074C2060081C06
:1023E000111C1A1CFDF71EFF431C03D12368002B90
:1023F00000D02B6038BDC046300D002038B500231A
:10240000064C051C081C2360FFF7DCF9431C03D1B4
:102410002368002B00D02B6038BDC046300D002053
:1024200038B50023064C051C081C111C2360FFF75F
:10243000CDF9431C03D12368002B00D02B6038BD9D
:10244000300D002038B50023064C051C081C236005
:10245000FFF7C2F9431C03D12368002B00D02B6087
:1024600038BDC046300D002038B5051C0020074C93
:102470002060081C111C1A1CFFF7B0F9431C03D183
:102480002368002B00D02B6038BDC046300D0020E3
:1024900038B5051C0020074C2060081C111C1A1CB4
:1024A000FDF79EFE431C03D12368002B00D02B6058
:1024B00038BDC046300D0020090A0B0C0D0E00007F
:1024C00000080042000C00420010004200140042CC
:1024D00000180042001C00421A11000016110000F2
:1024E0001611000076110000761100003011000076
:1024F00020110000361100006411000000120000DD
:10250000E0110000E01100006C120000F211000068
:102510000E120000E41100001C1200005C1200000A
:102520004300000004000020000000000000000044
:10253000000000000000000000000000000000009B
:10254000000000000000000000000000000000008B
:10255000000000000000000000000000000000007B
:10256000000000000000000000000000000000006B
:10257000000000000000000000000000000000005B
:102580000000000000000000F8B5C046F8BC08BC20
:102590009E467047DD000000F8B5C046F8BC08BC98
:0825A0009E467047B5000000E3
:1025A8000100000000000000282500004825000068
:1025B8006825000000000000000000000000000086
:1025C80000000000202500000000000000000000BE
:1025D80000000000000000000000000000000000F3
:1025E80000000000000000000000000000000000E3
:1025F80000000000000000000000000000000000D3
:082608000000000004000020A6
:04000003000016A93A
:00000001FF
