:100000000080002069070000650700006507000008
:1000100000000000000000000000000000000000E0
:100020000000000000000000000000006507000064
:1000300000000000000000006507000065070000E8
:100040006507000065070000650700008D010000DE
:10005000650700006507000065070000000000005C
:1000600065070000650700006507000065070000E0
:1000700065070000000000000000000065070000A8
:100080006507000065070000E1270000ED2700007C
:10009000F927000000000000000000000000000040
:1000A00000000000000000000000000065070000E4
:1000B0000000000010B5064C2378002B07D1054B3B
:1000C000002B02D0044800E000BF0123237010BDC4
:1000D0005C0100200000000034AE000008B5084BB1
:1000E000002B03D00748084900E000BF0748036819
:1000F000002B00D108BD064B002BFBD09847F9E739
:100100000000000034AE00006001002034AE0000AA
:100110000000000010B5194B1B785BB2013304D10D
:10012000174818493122184B9847144B9B7A002BDB
:1001300007D1124A53691B6854681C40631E9C41D6
:1001400006E00E4A93691B6854681C40631E9C417C
:100150000A4B1B785BB2013304D1094809492822B4
:10016000094B9847002C04D1044B1A695B68136053
:1001700003E0024BDA685B68136010BD7801002071
:1001800008A0000020A00000E510000008B5064B04
:10019000197A01220A431A721A7A802149420A43C3
:1001A0001A72024B984708BD001400401501000068
:1001B0001E4B1F4A5A60812252009A601D4A5A8083
:1001C0001D4B19881D4A0A401A801A880C218A433F
:1001D0001A801A880B398A431A80198880220A43A8
:1001E0001A80D979802040420143D971D9790122FE
:1001F0001143D971197A0A431A721A7A02431A7290
:1002000000221A61FA2292019A61198802220A4395
:100210001A800B4AC021890053581B021B0AC020B8
:10022000000603435350082313607047000C00403E
:10023000020401000442000000140040FFF0FFFF30
:1002400000E100E008B50748002303704360037233
:1002500043728372C3600361436183611321024B64
:10026000984708BD78010020091100007047C0467A
:1002700010B5041C064B0360191C1831DC22815098
:100280004C3304328350DC30024B9847201C10BDA5
:1002900090A300009910000008B4024B9C46DC3883
:1002A00008BC60477102000008B4024B9C46E0386D
:1002B00008BC60477102000010B5041C014B984750
:1002C000201C10BDBF2B0000F0B583B01648DC30F9
:1002D0001649174B9847174B9847174C201C082175
:1002E0000022164B9847201C1549164B9847201C96
:1002F0000021154B9847104C144E0B4BDC330193E7
:10030000201CB0470028FBD00B4F381C104B9847DF
:10031000051C01980F492A1C054B9847381C291CBD
:10032000094B9847ECE7C046940100206CA0000000
:10033000BD100000B101000088020020290E00005D
:1003400046C32300390E0000550E0000450E000084
:100350004D0E000074A0000010B5041C084B036093
:10036000191C1831DC2281504C3304328350DC30AC
:10037000044B9847201C044B9847201C10BDC046D6
:1003800090A3000099100000BF2B000008B4024B9E
:100390009C46DC3808BC60475903000008B4024B97
:1003A0009C46E03808BC60475903000030B583B074
:1003B000232300930948362122221433084CA047F6
:1003C000084C201C042105220023074DA847201CAF
:1003D0000649074A074B984703B030BD8802002002
:1003E000C90D0000940100208D0E00007102000074
:1003F000B0000020B12B000008B572B6962000F0C6
:10040000EDFE962000F0EAFEF8E7C0460B4A30B554
:1004100094689268231C002A0CD1002380221D5965
:1004200092059A1804331560B02BF7D18023034A44
:100430009B05936010308000C15030BD00ED00E09E
:1004400008B5044B1A78002A03D101321A7000F063
:10045000C9F908BDD4020020036870B51B690021EA
:100460000122041C9847061C431C0ED0236800215F
:100470001B690222201C9847051C2368201C1B694D
:10048000311C00229847281C70BDFDE708B50348C1
:100490000421052200F0AEFA08BDC0463404002055
:1004A000094B10B508330360084B00215A1CFF327A
:1004B00002E00433934206D01C688442F9D11960EB
:1004C00004339342F8D110BDA0A00000D802002050
:1004D000F0B5474680B40E1C82B03449051C04F0C8
:1004E00029FC041E08D1324B1B68002B0FD0201CA6
:1004F00002B004BC9046F0BD281C2E4904F01AFC42
:10050000002807D12A4B01241B68002BEFD1FFF7ED
:10051000BDFFECE7281C284904F00CFC002824D07F
:10052000264F00243B1C03E001340433402C22D02E
:100530001A68002AF8D12B783A2B30D06846291C4B
:1005400000F0E2FB684600F039FC002813D0684652
:1005500000F016FC002811D0684600F01DFC0028B1
:1005600009D0A300F8500334C1E7114B02241B68E3
:10057000002BBCD1CBE701246442B8E7684600F009
:10058000F1FB051EF7D0036868469B68984600F0AB
:10059000E7FB0B4A011C3240281CC047DFE7281C40
:1005A00008496A4604F050FB0098D8E784A0000090
:1005B000D803002094A000008CA00000D8020020E6
:1005C000FFFFFEFFCCA0000008B5031C0020022B9B
:1005D0000ADD0749033B9B005A585850002A04D0B3
:1005E0001368101C5B68984708BD01204042FBE778
:1005F000D8020020F8B50C1C171C022812DC104B86
:100600001B68002B01D1FFF741FF002F08D00D4DD3
:10061000E6192178281C013400F056FBB442F8D1C9
:10062000381CF8BD0338084B8000C058002803D0A0
:1006300003681B689847F4E701204042F1E7C04691
:10064000D803002034040020D802002010B50C1C70
:10065000022809DC0C4B1B68002B0FD00B4800F064
:1006600007FB2070012010BD0338094B8000C058E3
:10067000002806D003689B689847F4E7FFF706FF59
:10068000ECE701204042EEE7D803002034040020CC
:10069000D802002008B5031C0120022B08DD033B13
:1006A000054A9B009858002803D00368DB689847E8
:1006B00008BD01204042FBE7D802002008B5031C1A
:1006C0000020022B08DD033B05489B00185800283A
:1006D00003D003681B69984708BD01204042FBE72F
:1006E000D802002008B5022804D8802300209B01EE
:1006F0004B6008BD02F040FC09230360012040422A
:10070000F7E7C04608B5012002F03CFC7047C04640
:1007100008B5FFF795FEFFF7F9FFFFF7D5FD08BD18
:10072000074A13681818EFF30881884202D2106054
:10073000181C70470C220120024B40421A60F8E757
:10074000B4000020A404002008B5002800D1FEE772
:10075000FFF752FEFBE7C04608B5002104F0BFF9E1
:1007600008BDC046FEE7C0461648174910B5884286
:100770000DD0164B99420AD2CA43D31800229B08C7
:1007800001339B0084588C5004329A42FAD11049AC
:10079000104B99420BD2CA430020D31800229B0869
:1007A00001339B008C18043220609A42FAD1FF2159
:1007B000094B0A4A8B43936002F0E2FEFFF7A8FF61
:1007C000FEE7C04634AE0000B00000205C0100200F
:1007D0005C010020A80400200000000000ED00E003
:1007E0007047C04608B501F03BFFFFF7F9FFFFF780
:1007F000F7FFFFF7F5FFFFF7F3FF08BDF0B54F4632
:100800004646C0B4041C85B000285CD0006800F0E7
:10081000E9FD0E25002314306D44C0B22B80A7697A
:10082000666900F065FF1023011C0093381C2A1C28
:10083000002300F0EFFC2268D369002BFCD12B8849
:100840009381E268236913431D22A256013228D006
:10085000C025AD021D431C23E356013319D0A26805
:10086000FF2A1BD0294B15431E43002C25D022689C
:10087000D369002BFCD15560002C18D02268D369B5
:10088000002BFCD10020166005B00CBC90469946A8
:10089000F0BD1F4BA2681D40FF2AE3D11D4B1E4334
:1008A000E3E71D4D1D4080235B021D43D3E71B483A
:1008B0001B493F2200F016FCE0E7184818493F2288
:1008C00000F010FCD3E7154B154F181C391C9C2267
:1008D000984600F007FC206800F084FD0E25A3690F
:1008E00014306D44C0B299462C80666900F000FF58
:1008F0001023011C00932A1C4846002300F08AFCA8
:100900004046391C3F2200F0EDFB94E70400004113
:10091000FFFFFEFF04000040FFFFFDFFE8A0000016
:10092000ECA0000070B5051C86B000283CD01C204F
:100930001D210023285669560293039304930593BF
:1009400001F01EF80024061C1C202B191856311C1F
:1009500001F0A6F8A30002AA0134D050042CF3D170
:10096000039B00200193013B022B02D8114A9B00FC
:1009700098581E22AB5E013308D0029B002B03D196
:10098000049B0193022B08D006B070BD029B022B82
:10099000FAD180235B021843F6E7059B032BF3D1C2
:1009A00080239B021843EFE703480449712200F0BB
:1009B00099FBBCE7DCA00000E8A00000ECA0000070
:1009C00010B5041E0BD0FF23A3600023E360236156
:1009D00096239B01A36188235B03636110BD0348D9
:1009E0000349E12200F07EFBEDE7C046E8A00000ED
:1009F000ECA00000F0B54E4645465746E0B4041C56
:100A000084B00E1C151C002800D19DE0604F3B787F
:100A1000002B00D183E0201CFFF7D2FFFF232677B5
:100A2000A377E3776577201CFFF77CFF291C071C61
:100A3000301C00F0A5FF431C17D00F2505400120F6
:100A4000291C404201F04EF8061C021C2060002CBC
:100A50006AD0D369002BFCD1022113688B43136049
:100A6000012223681868024205D004B01CBC9046DD
:100A70009946A246F0BD1B6819408846F5D1A81CCE
:100A8000824044490B6A1A430A62424602AB1A701A
:100A900014239946A94402A9484600F01DFE484681
:100AA00000F0DCFD0021002000F07CFC6761201CD0
:100AB000FFF7A4FE424602AB5A719A71DA71202305
:100AC000271C9A461C37A2440023FB569946013343
:100AD0000FD04846291C00F0BFFF02ABC0B218710E
:100AE000FF2806D06A464B46D371D07903A900F09F
:100AF000E9FC01375745E7D1274B9E4230D0002C07
:100B000028D02368DA69002AFCD1002C31D0DA69B8
:100B1000002AFCD1196802320A431A60A5E7FFF7E0
:100B200061FE01233B7076E71C4B562299461C4B15
:100B300048469846191C00F0D5FA3F2248464146DF
:100B400000F0D0FA226884E714481549ED2200F03D
:100B5000C9FA5BE7114812493F2200F0C3FAD0E717
:100B60000122104B211C1A600F48473202F0A5FDEC
:100B7000C5E70A4E0A4D301C291C4A3200F0B2FA71
:100B8000301C291C3F2200F0ADFA2368BFE7C046A5
:100B9000D40200200004004000080042E8A0000049
:100BA000ECA00000D803002034040020F0B5474634
:100BB000041C80B40E1C151C002820D0184B196092
:100BC0002268184B9A4218D00DDC174901238A423B
:100BD00003D0164901338A420DD1154A9B009D501E
:100BE00004BC9046F0BD134904238A42F5D0124953
:100BF00001338A42F1D00023EFE70323EDE70F4BE7
:100C0000B32298460E4F181C391C920000F06AFA65
:100C1000034B4046391C0B4A1E6000F063FACFE7D5
:100C2000F403002000140042000C004200100042B7
:100C3000DC03002000180042001C0042E8A0000075
:100C4000ECA000006602000010B5041E04D023686A
:100C5000187E4007C00F10BD02480349034A00F048
:100C600041FAF4E7E8A00000ECA000002303000034
:100C700010B5041E08D0201CFFF7E6FF0028FAD0AC
:100C80002368188D80B210BD02480349034A00F062
:100C900029FAF0E7E8A00000ECA000001103000032
:100CA00010B5041E04D0012023681B7E184010BD1F
:100CB000CC2203480349920000F014FAF3E7C0463F
:100CC000E8A00000ECA0000038B5041C0D1C0028B2
:100CD0000ED0ED05ED0D201CFFF7E2FF0028FAD045
:100CE000022223681D8521680B7E1A42FCD038BD84
:100CF00002480349034A00F0F5F9EAE7E8A00000DA
:100D0000ECA000001903000038B500230360436025
:100D10000B78041C2F2B01D0201C38BD4B78002BE6
:100D2000FAD0481C20604B782F2B14D0002B15D004
:100D3000031C01E0002A0CD05D1A013323601A78ED
:100D40002F2AF7D1291C0133236001F095FB606045
:100D5000E2E7291CF9E7031C0021F4E70021F4E78E
:100D600000687047436810B5002B07D0041C181C9E
:100D700001F0A2FB012801D1606810BD0020FCE752
:100D8000406808B5002805D001F096FB4342584161
:100D9000C0B208BD0020FCE7436810B5002B0AD0A4
:100DA000041C181C01F088FB002804D1606800288E
:100DB00001D0043810BD0020FCE7C0464068431E47
:100DC0009841C0B27047C046F0B5474680B482B083
:100DD0001D1C08AB1B780F1C161C5BB200214022A7
:100DE000041C984602F072FC082323640023636409
:100DF0000C4B201CA3644346391C0093321C2B1C53
:100E000001F004F8201C216C626C012301F0F6F85B
:100E1000201CA16C01F0A6F9201C02B004BC904675
:100E2000F0BDC04640420F0008B501644264012392
:100E300001F0E4F808BDC04608B5816401F092F9FC
:100E400008BDC04608B501F009FA08BD08B501F0B3
:100E500021FA08BD08B501F079FA08BD08B500F01F
:100E6000B5F808BD08B4024B9C46DC3808BC6047A6
:100E70005D0E000008B500F0AFF808BD08B4024BE5
:100E80009C46DC3808BC6047750E000038B5041C71
:100E90001D1C00F043F8201C291CDC3000F0DAF89F
:100EA000064B201C1A1C191C08322260DC2220313F
:100EB000A15054330432A35038BDC04688A300006B
:100EC00008B54B005918C90043181A1CB8325268AB
:100ED000A8331B68002A06D0002B03D04118AC3180
:100EE000181C904708BD002BFCD09847FAE7C04675
:100EF00010B5002808D014685368002C05D0DA0714
:100F000005D45B10C018A04710BDDA07FCD55B10F4
:100F1000C01803681C59A047F6E7C046F0B547461D
:100F200080B4244B82B003600025031C171C6A4662
:100F3000041C009501950833884603CA03C31E4B61
:100F400023611E4B63611E4BA361231C0833256282
:100F5000E46163621B4BA362BFF36F8FBFF34F8FDC
:100F60005C23261CE56225646564A5656036E5544E
:100F70000133E554301C0021482202F0A7FBA823CE
:100F80009622E5501433E5500433E5501433E55010
:100F900092010433E250301C41463A1CFFF72AFD0F
:100FA000301C0949221CFFF701FE201C02B004BCC2
:100FB0009046F0BDF0A300001FB504247C440FCC84
:100FC00098471FBDF10E0000C10E000008B560304B
:100FD000FFF74EFE08BDC04610B50C1C6030FFF791
:100FE00073FE201C10BDC04600207047F8B58E1857
:100FF000051C0F1C0C1EB44202D10AE0A64208D008
:1010000001342B68621E5B6A1178281C9847431CC8
:10101000F4D1E01BF8BDC046F8B58E18051C0F1CB6
:101020000C1EB44205D10AE00134631E1870A642BA
:1010300005D02B68281C9B6A9847431CF4D1E01B01
:10104000F8BDC04600207047002070470020704760
:101050000020704710B5041C84B001F02FFA0B4B30
:1010600001A81A1C3C3363600023083263612260CC
:101070000749221C03F0C6FD064901A802F0B6F993
:101080006061FFF769FB201C04B010BDF8A30000ED
:10109000CCA000003CA40000074B10B51A1C041C97
:1010A00008323C3302604360406901F0D9FF201CE4
:1010B00001F018FA201C10BDF8A300000EB430B5E2
:1010C000041C82B005AB20CB4069019302F088F884
:1010D0006069291C019A02F0D7FC02B030BC08BC40
:1010E00003B0184738B5051C0C1C131C291C0248FA
:1010F000221C00F003F838BD40A400000FB401200A
:1011000008B501F03FFFC04638B50D1C041C00F0C7
:1011100003FB6B1C0ED00023E35601330BD0E368B6
:101120006268201C01211A6000F05EFB201C002177
:1011300000F032FB38BD034803492822FFF7D2FFF5
:10114000EDE7C04608A0000074A4000002E083425E
:1011500006D00C310023CB565A1CF8D1181C70470E
:101160004868FCE7021C08B5531C03D10BE09A4207
:101170000AD00C310023CB56581CF8D10448FFF795
:10118000BDFF0120404208BD4868431CFBD1F5E784
:1011900014A50000021C08B5531C03D10BE09A42B1
:1011A0000AD00C310023CB56581CF8D10448FFF765
:1011B000A5FF0120404208BD8868431CFBD1F5E72C
:1011C00034A5000038B5051C00F034FD041C00F007
:1011D00031FD001BA842FAD338BDC04608B5FA233A
:1011E0009B005843FFF7EEFF08BDC04610B5490805
:1011F00040230024814202D2181C10BD1C1C631C19
:10120000091A9BB28842F9D94023FF2CF4D81480E4
:101210000023F1E7F0B556464D4644465F46F0B42C
:10122000041C251C87B010A80678402075438D4209
:1012300006D907B03CBC90469946A246AB46F0BDE5
:1012400004920D1C221C002B3FD1301C002101F008
:101250003DFE002383463F2101209C469A462E1CDA
:1012600000270022002380460C1C24E04146A940B0
:101270000D1C4146A140101C8946191C801859417B
:101280000B1C021C594600920193294203D0404690
:101290001043021C019B9F420BD801D1964208D8F3
:1012A00061464846014350462843921BBB418C4649
:1012B0008246013C10D3202149426518D6D5202111
:1012C0000D1B4146E9400D1CD3E70024012B07D03C
:1012D000049B00201C80ACE763465C42240CF7E7CB
:1012E0004B0F1C1CCB009846301C0023002101F042
:1012F000EDFD00239C4620339B466346A1460090AB
:10130000019103936B461B7B002005930023002172
:101310009C463F2227E001249C40231C012746468F
:1013200097403E40041C0D1CB2464E4624184D41C9
:1013300033405646201C291C334304D00121231C72
:101340000B43181C291C019B8B420AD802D1009B1D
:10135000834206D8009B019CC01AA14163463B43CF
:101360009C46013A09D320235B42D318D3D55B4670
:1013700001249B1ADC40231CD0E76146039A8B1A98
:101380000749DB088B4206D9131C01330393082B52
:10139000B8D140204DE7059A54031C43A4B297E707
:1013A000FF1F000030B50E4C83B02378051C002BC6
:1013B00006D0002904D1637883420FD01D200BE0B2
:1013C00001A913200D7000F087F9132000F046F9F1
:1013D000012300206570237003B030BD0020FBE7BF
:1013E000F803002070B586B06946094B6A4670CB99
:1013F00070C170CB70C1002399005158814205D053
:101400000133062BF8D1002006B070BDD8B2FBE73F
:1014100064A70000D37870B5002B31D11478802CEC
:1014200047D0802324065B021C43537802251E1CF0
:10143000AE4307D19378002B37D180239B021C4306
:1014400041605378013B012B35D9A0250B04ED05F4
:101450001B0C2B43D025234383622D060B0C2B43FF
:1014600023438362D378002B09D1630303D5937898
:10147000012B23D041615378013B012B13D970BD5F
:10148000A0240B04E4051B0C2343D0244160240654
:1014900083620B0C23438362D378002BEFD1537804
:1014A000013B012BEBD88160E9E7C023DB021C4341
:1014B000C6E70024B9E7024B1C40C6E78161DAE7C2
:1014C000FFFFFBFF08B50A1C031CC109002000290F
:1014D00004D1064958098C46C00160441F210B40C5
:1014E0001E399940FFF796FF08BDC04600440041F1
:1014F0000823064A91690B43936101230121044AA1
:10150000137013781942FCD17047C04600040040A4
:10151000000C004070B50D784B782D02041C05437B
:10152000002B02D08023DB021D434B7A002B02D01C
:1015300080231B031D434E68012E0FD9731E3340B9
:1015400029D1022E05D00222013352009642FBD847
:101550001B0218438023041C5B031D430B7A002BE2
:1015600002D080239B031D430E4A53780D4E5BB27D
:10157000002BFADB00F0C4FBB4607378094A5BB25D
:10158000002BFADB802351685B020B401D43556042
:1015900000F0D4FB70BD802334029B0204431D4342
:1015A000DCE7C046000C004010B5041C0B4A537821
:1015B0005BB2002BFBDB00F0A3FB094B07491C705F
:1015C0004B78064A5BB2002BFADB80215368490254
:1015D0000B43536000F0B2FB10BDC046000C00404E
:1015E000040C0040F8B5071C194A53785BB2002B75
:1015F000FBDB00F085FB174B154A1F705378144C2A
:101600005BB2002BFADB6068C004C00E00F094FFF0
:10161000061C104B1F7065680F4BED02ED0F1F701D
:1016200063785BB2002BFBDB094B9968090A8CB22B
:1016300000F084FB002D03D0611CCE40301CF8BDAF
:10164000012CFBD9301C211C01F0BEFA061CF5E769
:10165000000C0040040C0040080C004010B5041CB5
:1016600000F04EFB8021054B054A1C705388C901D0
:101670000B43538000F062FB10BDC046020C0040DB
:10168000000C004010B5041C00F03AFB80200E4B0B
:101690000E4A1C7054880E4B518824050B40538011
:1016A00051880C4B240F0B405380C00153880749CD
:1016B0000342FBD14888064B2202034013434B8070
:1016C00000F03CFB10BDC046020C0040000C004086
:1016D000FFF0FFFFFFBFFFFF10B50C7824020443AB
:1016E000FFF7D0FF014BA4B25C8010BD000C00409E
:1016F00010B5041C00F004FB054B1C70054B5C8806
:1017000000F01CFB2405240F201CFFF76BFF10BD0D
:10171000020C0040000C004070B5051C82B00C1C8F
:101720004B1C28D0C8B200292CDB184B46099C461C
:10173000F60166442C70E217D20EA3181F241C4039
:10174000A41A0122131C64B2A3406B60002301A9F8
:101750002B72AB726A720B708B704A7000F0DCFEF9
:10176000331C1433EB6004332B61103608336B6188
:10177000AE6102B070BD064806491F22FFF7B2FCF9
:101780002C70F6E72C700026D5E7C04600440041D7
:101790007CA7000090A7000030B5041C007883B03F
:1017A00043B20D1C013313D0A37A01A90B70237A25
:1017B00065725A1E93418B70012D03D0002D01D00C
:1017C000022D00D14D70C0B200F0A6FE03B030BDB6
:1017D000034804493622FFF785FC2078E4E7C04639
:1017E00008A0000090A7000030B5041C007883B06A
:1017F00043B20D1C013313D0637A01A94B70237AD5
:10180000A5725A1E93418B70012D03D0002D01D07B
:10181000022D00D10D70C0B200F07EFE03B030BDCD
:10182000034804494C22FFF75DFC2078E4E7C046FA
:1018300008A0000090A70000F0B5454657464E4668
:10184000E0B4884682B0051C431C62D0C417E20E87
:101850001F24012783181C40A41A64B2A740C6B2F3
:10186000BA467509F3093ED1374BED019C466544F4
:10187000002D62D0281C1F233340C218403212783A
:101880000121944667468022394236D101A90A7067
:1018900002222C19403423781A4210D050462B686B
:1018A000034034D14B7023785B070AD52B6942463D
:1018B0000023CB70012A09D143468B700AE0012333
:1018C0004B7000234246CB70012AF5D04246022AD3
:1018D000F2D08B70301CFFF7F5FD02B01CBC9046B7
:1018E0009946A246F0BD194B99461948494623220C
:1018F000FFF7F8FB00250020BDE75B08C318303375
:101900001A78D2B2314216D10F231A40BEE74A707C
:10191000D7E70E4B0F4C9946191C201C5C22FFF791
:10192000E1FB201C49461E22FFF7DCFB0023FF26BB
:101930009A462C1CD9E71209A8E705480349232237
:10194000FFF7D0FB002096E700440041F8A7000015
:1019500060A800007CA7000010B5041C012904D079
:10196000201C0549FFF7F2FB10BD0449FFF7EEFB11
:10197000431CF9D1F4E7C046D8A5000054A50000E7
:1019800038B50D1C431C1BD00021FFF7E5FF431C9D
:1019900016D00F240440281C6B1C08D00021FFF730
:1019A000DBFF431C03D00F231840A04206D0631C6A
:1019B00003D0431C02D00120404238BD201CFCE76C
:1019C000281C6B1CF9D000210124FFF7C5FF6442DD
:1019D000431CE8D1F1E7C046F0B50F1C85B0161CDA
:1019E0001D1C041C431C03D00021FFF7B5FF041C81
:1019F0000094381C7B1C02D00021FFF7ADFF019042
:101A0000301C731C02D00021FFF7A6FF0290281C97
:101A10006B1C02D00021FFF79FFF039001200023E1
:101A200040420F22611C04D0411C0BD01440844260
:101A30000FD10433102B0AD06946CC58611CF8D062
:101A4000411CF3D1201C04331040102BF4D105B0FD
:101A5000F0BD01204042FAE7F8B5431C04D00F2640
:101A600031400D1E052D02D901204042F8BD0A4F1C
:101A7000041C391CFFF776FB3040A84207D0074F03
:101A8000201C391CFFF76EFB0640AE42ECD1201C37
:101A9000391CFFF77FFBE9E7D8A5000054A500003B
:101AA00070B5431C04D00F2421400D1E052D02D912
:101AB0000120404270BD0949061CFFF753FB231C5F
:101AC0000340AB4207D0301C0549FFF74BFB231CFA
:101AD0000340AB42ECD100092040EBE7D8A5000061
:101AE00054A5000070B586B06A46084B684670CBB6
:101AF00070C270CB70C20F231940052903D9012091
:101B0000404206B070BD89000858FAE768A8000096
:101B1000032208B5024B1B689A7300F0F5FC08BD60
:101B20007C04002030B50125354B364C1D602378F0
:101B30008FB0002B5CD00023002201AC22746361C3
:101B4000A36122772362636200202370A370A380C5
:101B5000A27123816270A272E2722273A273627315
:101B600023856385A385FFF73DFD274901F02CF808
:101B7000002832D00023012807D040080133012873
:101B800022D00B2BF9D1E023DB00A3800823A37024
:101B9000073B637000231D4DA3621D49013B221CBE
:101BA000281CE36200F04EFE1A490222281C00F0B5
:101BB000CDFD7F212A68D37B8B43FCD11188023372
:101BC0000B4313800FB030BD082BDCD8062B13D885
:101BD000042B08D9A023DB00D7E70F480F49572271
:101BE000FFF780FA0023E0221B02D2001340CCE76B
:101BF000FEF7F8FD25709EE7C023DB00C5E7C04671
:101C0000FC030020D402002040420F007C0400208E
:101C100000300042111B000080A8000094A80000C2
:101C200008B5034B1B68002B01D1FFF77BFF08BDF4
:101C3000FC03002008B5054B1B68002B01D1FFF702
:101C400071FF034800F050FF08BDC046FC030020B0
:101C50007C040020F8B5061CFFF7ECFF301A21D4F5
:101C600080278023114D3F03EF5011491320FEF7C9
:101C7000CDFB104C206800F0C5FD1F220E4B00214B
:101C80001B5C201C13401E3A9A4010232A60627E7F
:101C900013436376102322685373321C00F03AFF1B
:101CA0002F60F8BD00F030FCFBE7C04600E100E02B
:101CB000ED2700007C04002004A900001021064B41
:101CC0001A6811735A7E8A4380215A768023034A08
:101CD0000903D1507047C0467C04002000E100E0B9
:101CE0001022054B80211B6809039A731A73C023C5
:101CF000024A5B00D15070477C04002000E100E004
:101D00000B4B1A68002A05D1EFF31081002905D08A
:101D100008490A701A6801321A60704772B6BFF338
:101D20005F8F054A1170034A01311170F2E7C04616
:101D30000004002004040020B8000020084B1A68AA
:101D4000013A1A601B68002B09D1064B1B78002B47
:101D500005D00122044B1A70BFF35F8F62B6704743
:101D60000004002004040020B8000020F8B5041E80
:101D70003ED02068FFF736FB2379071C012B2AD0C1
:101D8000012500230520E3181856431C0FD0391CE9
:101D9000FFF786FE431C0AD0C0260005B6030640A6
:101DA000052065192856431C07D1301CF8BD0520B5
:101DB000651928560026431CF7D0391CFFF770FE22
:101DC000431CF2D0002809D0C023013800049B0234
:101DD00018400643E9E700250123D3E70720391C13
:101DE0002056FFF75DFE032808D000200643DCE7FD
:101DF00004480549B122FFF775F9BAE7C02080020F
:101E00000643D2E7E8A0000008A90000F0B5444668
:101E10005F464D465646F0B485B098460EAB1B78EB
:101E2000041C5BB20D1C93460093002800D1C8E04F
:101E30004346013300D1B8E000236A4E02AA538022
:101E40003378002B32D059464246009B281CFFF7BE
:101E5000C3FD8146012049464042FFF743FE206012
:101E6000002C00D1A7E0604F604E03E02268538B46
:101E7000DB0B0AD0002CF9D14422381C311CFFF7AF
:101E800031F92268538BDB0BF4D1022113688B43A9
:101E9000136023681E6801239A461E400BD005B0CC
:101EA0003CBC90469946A246AB46F0BDFEF79AFC74
:101EB00001233370C7E74B46504602339840031C5A
:101EC0004B490A6A13430B6202AB1E704B46143334
:101ED000DBB21F1C181C02A90193FFF7FDFB381C85
:101EE000FFF7BCFB00210020FFF75CFA0C232268FF
:101EF00003AF11680B4313605346237180233B707B
:101F00005346BB705B46A3714346E3716B461B7837
:101F100065712372092398466DB27E70FE70A044ED
:101F2000A61D6B1C0BD0281C4946FFF795FDC0B2BF
:101F30003870FF2803D0E8B2391CFFF7C3FA4645D2
:101F400006D0357801366DB26B1CECD14645F8D120
:101F50000198FFF7CDFB02AB011C9A1C2548FFF747
:101F600045F900289BD102AB9B782268201C137393
:101F7000FFF7FCFE80212268890213681843106075
:101F8000226853680B435360002C25D0164E174D22
:101F900003E02268538BDB0B19D0002CF9D1301CE5
:101FA000291C4422FFF79EF8F3E713480F49F52256
:101FB000FFF798F840E70C480C495E22FFF792F8CB
:101FC00051E709480949F422FFF78CF830E7116816
:101FD00002330B43136062E7034804495222FFF7C0
:101FE00081F8D3E7D4020020E8A0000008A900008F
:101FF00000040040A086010070A90000F8B54F461B
:102000004646041CC0B48846151C9946002800D1D9
:102010008AE04F4F4F4E06E02268538BDB0BDB0309
:102020009BB2002B0DD0002CF6D14422381C311C61
:10203000FFF758F82268538BDB0BDB039BB2002BB6
:10204000F1D102201168814311604A46002A60D014
:102050001C21206802688A4314390A4302602268FE
:102060002371516840330B43536000239946271C6A
:10207000661D093700203056431C02D04946FFF741
:10208000DBFB0136BE42F5D12368201C1E68324BB3
:102090001E40FFF76BFE4246236806431E60216820
:1020A0000123082A00DC002307204A6803408243FA
:1020B00013434B6001231A1C20682A40066811074D
:1020C000264A6D0832400A43026021681D406B07B2
:1020D000234A0D6815401D430D60002C32D01C4E64
:1020E0001C4D03E02268538BDB0B0AD0002CF9D186
:1020F0004422301C291CFEF7F5FF2268538BDB0BB2
:10210000F4D1116802330B4313600CBC904699461E
:10211000F8BD1C2221680B689343103A13430B60EF
:10212000012323719946A2E79622094F094E381CD4
:10213000311CFF32FEF7D6FF381C311C5E22FEF741
:10214000D1FF66E7024803495222FEF7CBFFC6E7FC
:10215000E8A0000008A90000FFFFCCFFFFFFFFEF91
:10216000FFFFFFDFF0B583B000236A46041C0D1C9F
:10217000D380002853D0374F374E03E02268538B6B
:10218000DB0B0AD0002CF9D14422381C311CFEF79D
:10219000A9FF2268538BDB0BF4D1022113688B4318
:1021A00013602068FFF71EF91430C0B2FFF7A0FAE1
:1021B0006B46011C9A1D281CFFF718F800281DD13A
:1021C0006B4622689B791373002C36D0214E224D2A
:1021D00003E02268538BDB0B0AD0002CF9D1442298
:1021E000301C291CFEF77EFF2268538BDB0BF4D1D9
:1021F000116802330B43136003B0F0BD002C22D0F2
:10220000144E154D03E02268538BDB0BF0D0002CED
:10221000F9D1301C291C4422FEF764FFF3E7D022D9
:102220000C4F0D4E381C311CFF32FEF75BFF381C83
:10223000311C5E22FEF756FF9DE7064806495222F2
:10224000FEF750FFC2E7034803495222FEF74AFF58
:10225000D6E7C046E8A0000008A9000070B5041E3B
:1022600004D02368187E4007C00F70BD064E074D8E
:10227000301C291C064AFEF735FF301C291C7C2225
:10228000FEF730FFEDE7C046E8A0000008A9000017
:1022900036020000F0B54746051C80B4002838D04F
:1022A000264B274C9846274F042606E02B681A7EBB
:1022B00016420DD1013C002C25D0002DF6D17C22F8
:1022C0004046391CFEF70EFF2B681A7E1642F1D0ED
:1022D000002D24D00422197E00200A420AD0598BF6
:1022E0000A420AD107215A680A40012A0DD0FF206C
:1022F0009B6A184004BC9046F0BD598B0A4392B2C9
:102300005A832B68EEE70020F4E7986AC005C00DF9
:10231000F0E70A480B490C4AFEF7E4FEC0E7074E17
:10232000084C301C211C9622FEF7DCFE301C211CC0
:102330007C22FEF7D7FE2B68CCE7C046E8A0000061
:102340001027000008A9000047020000F8B5464623
:102350004F46051CC0B48846002824D01C4B1D4C99
:1023600099461D4F012606E02B681A7E16420DD1B4
:10237000013C002C13D0002DF6D173224846391CA5
:10238000FEF7B0FE2B681A7E1642F1D0002D10D059
:102390001A7ED20703D54246D705FF0D9F620CBCBB
:1023A00090469946F8BD0A480B490C4AFEF79AFE3A
:1023B000D4E7074E084C301C211C8522FEF792FE04
:1023C000301C211C7322FEF78DFE2B68E0E7C0460F
:1023D000E8A000001027000008A900006502000026
:1023E0000A4B083303608368002B0AD0084B1A6835
:1023F000824201D106E01A1C53688342FBD1436834
:102400005360704742681A60FBE7C04680A900002D
:10241000080400200D4B10B5083303608368041CCA
:10242000002B0AD00A4B1A68904201D10AE01A1C0C
:1024300053689C42FBD163685360201C00F0BFFBD3
:10244000201C10BD42681A60F7E7C04680A9000052
:1024500008040020064B81600833036000230273E8
:102460004360002903D0034B1A681860426070472C
:1024700080A90000080400200E4B70B51C68061CE3
:102480000D1C002C03D112E06468002C0FD0A06852
:102490000028F9D0311C2A1C02F05DFC0028F3D181
:1024A000A06802F051FCA842EED1201C00E0002000
:1024B00070BDC04608040020007B7047074B10B574
:1024C0000022041C08C0FFF7C5FF054B201C1A1C86
:1024D000343308322260636010BDC046A8A00000FB
:1024E00090A90000074B10B51A1C041C08323433A5
:1024F000026043600430FFF773FF201CFDF7D0FF3C
:10250000201C10BD90A9000008B5024800F02AFB6D
:1025100008BDC046E0A90000802200B583B001AB31
:102520001A700A785A704A789A708A78191CDA7088
:10253000FEF7C8FF03B000BD10B508282CD81B4B10
:1025400080001B589F468020000210BD184B586920
:10255000FBE7184B186A184B8005800FC340181C06
:10256000F3E70220124C23681840EED010221149E4
:10257000CB681A42FCD023685B070FD40F48E4E70E
:102580000B4B1869E1E750230A4A0020D35C5B0734
:10259000DBD5074BD868D8E70020D6E70020FFF747
:1025A000A7F8A3681B041B0C5843CEE7E8A900005A
:1025B000140400200008004000127A00006CDC02C5
:1025C00010B5082841D8224B80001B589F46002098
:1025D00010BD02231F4A002091690B439361F7E766
:1025E00002231C4A0020918A0B439382F0E70223C6
:1025F000184A0020116A0B431362E9E702231020F6
:10260000154C2268134323602268144B1340114A6F
:102610009384D3680F491842FBD0A3680020CB6293
:1026200063688B6223689BB28B84D1E744220223C8
:102630000849885C03438B540020C9E70223054AFC
:102640000020118A0B431382C2E71720C0E7C0465F
:102650000CAA000000080040140400207FFF0000C6
:10266000F0B54746C2221E2180B4314BD2009A6099
:10267000304A0024536884B08B435360012301AD7A
:102680002B70E0B2291C0134FFF726F8252CF8D175
:10269000294B274C1B68A169DB045B0E1A04274BEE
:1026A00004260B40134308224027A361A36904209A
:1026B00033431343BB43783290461343E022D200A6
:1026C00013431F4A1340A361FFF77AFF4246236A70
:1026D0000620BB4313431B4A13402362FFF770FFDE
:1026E0000024FEF705FF2023291C02206B606C707C
:1026F0002C726C722E70FEF70DFF0220FEF754FF55
:10270000114B291C1C725C729C72DC72012300202C
:102710006B6005332B706C702C726C72FEF7FAFED6
:102720000020FEF741FF04B004BC9046F0BDC04657
:10273000000800400040004124608000FFFF80FF4F
:10274000FFEFFFFFFFFCFFFF00040040931C9B0016
:102750001950022A09D0032A0CD0012393401A1CD5
:10276000037E1A430276002070471023027E134333
:102770000376F8E72023027E13430376F3E7C0468F
:1027800070B50126154B8000C5582B682C7E9B7BAD
:102790001C406B7E1C4026421AD10226264211D1D3
:1027A0001026264208D12026264204D06B69281C18
:1027B00098472B689E7370BD2B69281C98472B681F
:1027C0009E73F0E7EB68281C98472B689E73E7E739
:1027D000AB68281C98472B689E73DEE7980400209E
:1027E00008B50020FFF7CCFF08BDC04608B50120A2
:1027F000FFF7C6FF08BDC04608B50220FFF7C0FFBF
:1028000008BDC0460E4B011C181C70B584B001AA4F
:1028100070C870C2019A8A4208D05A688A4208D0A9
:102820009B6800208B4207D004B070BD0020C0B26E
:10283000FAE70120C0B2F7E70230C0B2F4E7C046C1
:1028400030AA0000F0B557464E464546A34C914687
:10285000221CE0B486B003AB051C0E1C9A4683CA4A
:1028600083C3039B9E4200D10CE163689E4200D16A
:102870000BE100239846A3689E4200D108E1211C89
:1028800003220C3101A800F018FF211C0622103190
:10289000504600F012FF0023AB60EB602B616B61D0
:1028A0002B766B7643468E4A9B009D504B462E609E
:1028B0009B78082B0BD02B71338801220520DB0776
:1028C0000AD506B01CBC90469946A246F0BD4246C9
:1028D0001720D207F5D5EEE7F37B1730DB06F0D4EF
:1028E000022133880B40ECD14946097C002900D0F5
:1028F000D1E04B461B7F002B00D0D8E0414650462C
:10290000784A4900136A415A0B4313624B469B783D
:10291000082B00D1DAE04B466A461B7869461370F3
:102920006B46424604339C5C201CFEF7D5FE201CFF
:10293000FEF794FE4B464A4698881B8903439079DC
:102940009278104318434B465B78002B02D08023CB
:102950001B0118437F222968CB7B9343FCD14B4654
:102960003080587B431E98414B469B7B8000002B58
:1029700001D0012318437F222968CB7B9343FCD1EC
:10298000FF333371002805D07F222968CB7B934326
:10299000FCD170714B46987ADB7A002B01D0102362
:1029A00018434B461B7B002B01D0202318437F226A
:1029B0002968CB7B9343FCD17F21B0712A68D37BFC
:1029C0008B43FCD12B797F21042B07D07F21082B4F
:1029D00040D07F21002B25D0172072E7D37B8B437B
:1029E000FCD14A462833D35C7F2233742968CB7BE1
:1029F0009343FCD14A462933D35C7F22337529683F
:102A0000CB7B9343FCD14A462A33D35C7F22337677
:102A10002968CB7B9343FCD14A462B33D35C0020FF
:102A200073764EE7D37B8B43FCD14B467F221B8DC5
:102A300033822968CB7B9343FCD14B467F225B8D4D
:102A400033832968CB7B9343FCD14B469B8D00207D
:102A5000738336E7D37B8B43FCD14B467F229B6A43
:102A600033612968CB7B9343FCD14B467F22DB6AE1
:102A7000B3612968CB7B9343FCD14B461B6B002091
:102A8000F3611EE700239846F9E601239846F6E62F
:102A900002239846F3E602A9CB704B461B7E8A7050
:102AA0000B704B46187D4A70FEF70CFD21E70123A1
:102AB000002202A98B704B704B46CA704A461B6AB3
:102AC000526AD8B20A70FEF7FDFC17E741460131A1
:102AD0004900136A415A0B4313621CE730AA0000F5
:102AE00098040020000400407F210268D37B8B43C0
:102AF000FCD10379042B0AD0082B06D00020002B30
:102B000000D07047108A80B2FBE71069F9E7107CAB
:102B1000C0B2F6E730B57F250468E37BAB43FCD158
:102B20000379042B16D0082B0CD01720002B00D0D3
:102B300030BD17200129FBD80C3192B249000A534D
:102B40000020F5E717200129F2D8063189000A5143
:102B50000020EDE717200129EAD8D2B261180A76E1
:102B60000020E5E738B50368051CDB6898476B680B
:102B70005B680DE01C682B685B689847241A002C82
:102B80000CDC6A6851688B6853601268002A0CD1AB
:102B9000002BEFD12B689B68984738BD6A682B687B
:102BA00052681B6910689847F7E748689047DEE766
:102BB00008B5031C081C191C00F0D0F908BD08B5A5
:102BC00000F066FD08BD0000002243088B4274D36C
:102BD00003098B425FD3030A8B4244D3030B8B421E
:102BE00028D3030C8B420DD3FF22090212BA030C27
:102BF0008B4202D31212090265D0030B8B4219D308
:102C000000E0090AC30B8B4201D3CB03C01A524127
:102C1000830B8B4201D38B03C01A5241430B8B426F
:102C200001D34B03C01A5241030B8B4201D30B0358
:102C3000C01A5241C30A8B4201D3CB02C01A52417F
:102C4000830A8B4201D38B02C01A5241430A8B4242
:102C500001D34B02C01A5241030A8B4201D30B022B
:102C6000C01A5241CDD2C3098B4201D3CB01C01A45
:102C7000524183098B4201D38B01C01A524143094F
:102C80008B4201D34B01C01A524103098B4201D33D
:102C90000B01C01A5241C3088B4201D3CB00C01AAA
:102CA000524183088B4201D38B00C01A5241430822
:102CB0008B4201D34B00C01A5241411A00D2014647
:102CC000524110467047FFE701B5002000F0FCF8C4
:102CD00002BDC0460029F7D003B5FFF775FF0EBC53
:102CE0004243891A1847C04603460B437FD400224B
:102CF00043088B4274D303098B425FD3030A8B4290
:102D000044D3030B8B4228D3030C8B420DD3FF22F9
:102D1000090212BA030C8B4202D31212090265D0C7
:102D2000030B8B4219D300E0090AC30B8B4201D37A
:102D3000CB03C01A5241830B8B4201D38B03C01AC1
:102D40005241430B8B4201D34B03C01A5241030B38
:102D50008B4201D30B03C01A5241C30A8B4201D3E9
:102D6000CB02C01A5241830A8B4201D38B02C01A94
:102D70005241430A8B4201D34B02C01A5241030A0B
:102D80008B4201D30B02C01A5241CDD2C3098B42F0
:102D900001D3CB01C01A524183098B4201D38B016D
:102DA000C01A524143098B4201D34B01C01A524110
:102DB00003098B4201D30B01C01A5241C3088B4255
:102DC00001D3CB00C01A524183088B4201D38B0040
:102DD000C01A524143088B4201D34B00C01A5241E2
:102DE000411A00D201465241104670475DE0CA0FB9
:102DF00000D04942031000D34042534000229C4679
:102E000003098B422DD3030A8B4212D3FC22890182
:102E100012BA030A8B420CD3890192118B4208D358
:102E2000890192118B4204D389013AD0921100E0BA
:102E30008909C3098B4201D3CB01C01A52418309CE
:102E40008B4201D38B01C01A524143098B4201D3FB
:102E50004B01C01A524103098B4201D30B01C01A26
:102E60005241C3088B4201D3CB00C01A52418308A0
:102E70008B4201D38B00C01A5241D9D243088B42F6
:102E800001D34B00C01A5241411A00D20146634699
:102E900052415B10104601D34042002B00D54942FD
:102EA000704763465B1000D3404201B5002000F03C
:102EB0000BF802BD0029F8D003B5FFF715FF0EBCD3
:102EC0004243891A1847C0467047C046F0B54F467E
:102ED000464605042D0C2C1CC0B41704160C3F0CE0
:102EE0009946030C7C4375435F4373437D19260C5D
:102EF000AD199C46AF4203D980235B029846C44477
:102F00004B465143434324042E0C240C2D046644A9
:102F10002C1959188919201C0CBC90469946F0BDF3
:102F20001C2101231B04984201D3000C10391B0AF9
:102F3000984201D3000A08391B09984201D30009BD
:102F4000043902A2105C40187047C0460403020214
:102F5000010101010000000000000000054B10B558
:102F6000041C181E05D0131C02200A1C211C00E0A2
:102F700000BF10BD00000000014B18687047C0463C
:102F80001C010020084B10B5041C002B02D00021AE
:102F900000E000BF054B1868836A002B00D09847FB
:102FA000201CFDF7D1FBC04600000000ACAA0000C9
:102FB00070B5051C0C1E01D1002049E0002804D08A
:102FC0008369002B01D100F061F9224B9C4201D1B1
:102FD0006C6808E0204B9C4201D1AC6803E01F4BB9
:102FE0009C4200D1EC680C22A35E002BE4D0281C8C
:102FF000211C00F03FF8236B061C002B06D0281C78
:10300000216A9847002801DA01267642A3891B0627
:1030100003D5281C216900F061FB616B002908D0F1
:10302000231C4433994202D0281C00F057FB002394
:103030006363A16C002904D0281C00F04FFB00231F
:10304000A36400F093F90023A38100F090F9301CF1
:1030500070BDC04648AA000068AA000088AA000007
:1030600008B5034B011C1868FFF7A2FF08BDC04656
:103070001C010020F7B58A89051C0C1C13075ED4BF
:103080004B68002B02DC0B6C002B1ADDE76A002F6B
:1030900017D000232E682B6080235B011A4001D0DB
:1030A000626D15E0281C216A0123B847021C431CED
:1030B0000ED12B68002B0BD01D2B01D0162B02D16B
:1030C0002E6000205EE04021A3890B43A38159E0DC
:1030D000A3895B0706D56368D21A636B002B01D006
:1030E000236CD21A0023281C216AE76AB847A389F7
:1030F000421C06D12A68002A03D01D2A01D0162AB4
:1031000019D10022626022692260DB0405D5431CCC
:1031100002D12B68002B00D16065616B2E60002905
:10312000CFD0231C4433994202D0281C00F0D6FA99
:103130000020606326E040221343A38122E00F6950
:10314000002FBED00B680F60DB1B0193002392079A
:1031500000D14B69A360019B002BB2DD281C216AC2
:103160003A1C019BA66AB047002806DC40220120D9
:10317000A38940421343A38104E0019B3F181B1A1B
:103180000193E8E7FEBD000038B50B69051C0C1C77
:10319000002B01D100201CE0002804D08369002B03
:1031A00001D100F073F80B4B9C4201D16C6808E030
:1031B000094B9C4201D1AC6803E0084B9C4200D112
:1031C000EC680C22A35E002BE4D0281C211CFFF726
:1031D00051FF38BD48AA000068AA000088AA000074
:1031E00008B5011E05D1054B0549186800F0A6F980
:1031F00003E0044B1868FFF7C7FF08BDACAA000046
:10320000893100001C01002008B5024900F096F940
:1032100008BDC04689310000002310B5041C0360BE
:103220004360836081814366C2810361436183613E
:10323000191C08225C3000F049FA054B24626362D5
:10324000044BA362044BE362044B236310BDC046EE
:10325000994C0000C54C0000FD4C0000294D0000B9
:1032600070B568254B1E5D430E1C291C743100F09F
:103270007BFA041E08D000212A1C016046600C3035
:10328000A060683200F022FA201C70BD836913B57B
:10329000002B28D18364C3640365134B134A1B6856
:1032A00082620193984201D101238361041C00F0E2
:1032B0001FF86060201C00F01BF8A060201C00F0CC
:1032C00017F80421E06000226068FFF7A5FFA068FE
:1032D00009210122FFF7A0FFE06812210222FFF777
:1032E0009BFF0123A36113BDACAA000009320000BB
:1032F000F8B51D4B061C1D68AB69002B02D1281CBC
:10330000FFF7C4FF4835AC686B68013B05D40C225D
:10331000A75E002F10D06834F7E72B68002B06D18A
:10332000301C0421FFF79CFF2860002801D02D6885
:10333000E9E70C23336016E00123201C5B42E381A4
:103340000233A38167662760A760676027616761B2
:10335000A7615C30391C082200F0B8F9201C6763B3
:10336000A763A764E764F8BDACAA00007047704784
:10337000F7B50F1C111C01AA051C03F00FFC061E5B
:1033800001D1002427E0281CFFF7B2FF041EF8D06B
:10339000DB23281C391C019A5B0001F01FFB00286D
:1033A00006DA0025FFF7E2FFA581FFF7E0FFE8E777
:1033B0000A4BE08163620A4BA681A362094B246237
:1033C000E362094B2363F30505D5281C211C002269
:1033D000022300F017F8201CFEBDC046994C0000E7
:1033E000C54C0000FD4C0000294D000008B5031C31
:1033F0000A1C03490868191CFFF7BAFF08BDC0463C
:103400001C01002008B500F001F808BDF7B5051C47
:103410000C1C01921E1C002804D08369002B01D1D2
:10342000FFF734FF414B9C4201D16C6808E0404BF0
:103430009C4201D1AC6803E03E4B9C4200D1EC6859
:103440008422A38952001340934203D1281C211CDB
:10345000FFF79AFEE36A0093002B01D11D3331E0A0
:10346000012E05D0022E31D01623002E2AD12DE0B8
:10347000281C211CFFF788FE8023A2895B011A40CB
:1034800001D0606D06E0331C281C216A009EB04705
:10349000431C18D0A3895A0707D56368C01A636B09
:1034A000002B0AD0236CC01A07E01B0705D5236840
:1034B000002B02D022699B1AC018019B00261B1802
:1034C000019303E02B6001277F422DE02369002B4D
:1034D00003D1281C211C00F079F8281C211CFFF7BF
:1034E00053FE071EEFD1331C281C216A019A009E4F
:1034F000B047431CE7D0616B002908D0231C44333C
:10350000994202D0281C00F0E9F8002363630021EF
:10351000201C2369A2892360074B61601340A381AB
:103520005C30082200F0D2F8381CFEBD48AA00002A
:1035300068AA000088AA0000DFF7FFFFF7B5041CA7
:10354000071C002601914834002C16D06368A5683A
:103550000093009B013B00930DD4AB89012B08D94C
:103560000E22AB5E013304D0381C291C019B984706
:1035700006436835EDE72468E6E7301CFEBD000031
:103580000E4B70B500251E1C0D4CE41AA410A5426C
:1035900004D0AB00F35898470135F8E707F036FC44
:1035A000084B00251E1C084CE41AA410A54204D0A8
:1035B000AB00F35898470135F8E770BD18AE00002E
:1035C00018AE000018AE000024AE0000F0B58B89E4
:1035D00091B09B0706D50B1C47330B600B61012391
:1035E0004B6145E00C1C0E23C95E061C002904DA61
:1035F0008023A5891D4010D10CE001AA03F006FB31
:103600000028F5DBF023029D1B021D40194BED182D
:103610006B425D418027FF0001E000254027301C00
:10362000391C00F0A1F800280CD1A3899A051FD4F9
:1036300002221343A381231C473323602361012308
:10364000636115E080220C4BB362A38920601343B1
:10365000A38120616761002D0AD00E23E15E301C3A
:1036600003F0FEFD002803D00122A3891343A381A8
:1036700011B0F0BD00E0FFFF0932000008B5034BB8
:10368000011C186800F070F808BDC0461C0100203D
:1036900008B5034B011C186800F020F808BDC046AF
:1036A0001C010020C9B28218904204D003788B42DA
:1036B00002D00130F8E700207047002310B5934294
:1036C00003D0CC5CC4540133F9E710BD031C82184D
:1036D000934202D019700133FAE7704730B50029E0
:1036E0003ED004390B68002B00DAC9181D4A136854
:1036F000141C002B02D14B60116031E099420DD2B5
:1037000008680A189A4203D11368C3180B605368FB
:103710004B60216024E08A4203D8131C5A68002AB7
:10372000F9D11D685C198C420BD1096869185818C9
:103730001960904214D110685268091819605A60D3
:103740000EE08C4202D90C23036009E008680C18D3
:10375000944203D114685268001908604A605960A5
:1037600030BDC04630040020032370B5CC1C9C4300
:103770000834051C0C2C01D20C2405E0002C03DAC3
:103780000C2300202B6042E08C42F9D3204A1368BE
:10379000101C191C002913D00A68121B0DD40B2A07
:1037A00002D90A608B181FE08B4202D15A6802606E
:1037B0001BE04A685A600B1C17E00B1C4968E9E7DC
:1037C000144E3368002B03D1281C01F043F93060FC
:1037D000281C211C01F03EF9031C421CD0D00322FE
:1037E000C61C964386420AD11C60181C07210B3068
:1037F0001A1D8843821A0AD05142995007E0311AA3
:10380000281C01F027F9431CBAD0331CECE770BD2B
:10381000300400202C040020936810B5013B936015
:10382000002B05DA9469A34208DBCBB20A2B05D042
:103830001368581C10601970C8B201E002F034FA25
:1038400010BDF8B5061C0F1C141CD518AC4208D0CE
:103850002178301C3A1CFFF7DFFF0134431CF5D1FF
:1038600000E00020F8BD0000F0B59FB0061C0F1C62
:1038700002920593002804D08369002B01D1FFF741
:1038800005FD794B9F4201D1776808E0774B9F4255
:1038900001D1B76803E0764B9F4200D1F768BB893E
:1038A0001B070AD53B69002B07D0002306AD6B61CF
:1038B00020336B761033AB763DE0301C391C02F0C0
:1038C0005FFA0028F1D001204042CAE0059A111D9C
:1038D00012680591002A7EDB0992013423782E2B91
:1038E00000D189E0217863480322FFF7DBFE00283E
:1038F00008D0604B0134C01A40238340181C2B6849
:10390000184328602178631C5B48062202932976BD
:10391000FFF7C8FE002800D191E0584B002B00D0E3
:1039200084E00722059B07339343083305936B69B3
:10393000039A9B186B61029C2378002B04D1029B95
:10394000E31A049311D003E0252BF8D00134F3E7F8
:10395000049B301C391C029AFFF773FF431C7BD079
:103960006A69049B944663446B612378002B73D08F
:103970000122002352426A6002A9543252180134D3
:103980002B60EB60AB601370AB6521783C4805227F
:10399000FFF788FE002809D0394B0134C01A0123F3
:1039A0008340181C2B6818432860EEE72B68DA0662
:1039B00004D55322202102A8121811701A0704D529
:1039C00053222B2102A81218117022782A2A00D122
:1039D0007CE7099B05E05242EA60022213432B6018
:1039E0007BE72278303A092A04D80A214B43013474
:1039F0009B18F6E7099371E763782A2B09D1059B99
:103A000002341A1D1B680592002B0DDA01235B425C
:103A10000AE0002301342278303A092A04D80A2126
:103A20004B4301349B18F6E707935BE705AB009324
:103A3000301C291C3A1C134B00F0CAF807E005ABF8
:103A40000093301C291C3A1C0E4B00F06DFB0390B8
:103A5000039B013300D06AE7BB895B0600D532E7E0
:103A60000B981FB0F0BDC04648AA000068AA00002D
:103A700088AA0000B6AA0000BAAA0000D13B000044
:103A8000B0AA00004338000038B5051C0C1C131CFC
:103A9000034A291C1068221CFFF7E6FE38BDC04609
:103AA0001C010020F0B58BB0141C1D1E129906DA03
:103AB000802424062B191D1C141C2D2300E0002338
:103AC0000B702023149E03229E43462E07D0331CE6
:103AD000453B59424B411099013ACB181093109B2A
:103AE00000920193139B221C029308AB039309AB32
:103AF00004932B1C02F052FA071C472E02D1119B93
:103B0000DB072CD5109BFB180793462E14D13B786E
:103B1000302B0CD1201C291C0022002304F07AFB3E
:103B2000002804D10123109A9B1A139A1360139B47
:103B3000079A1B68D3180793201C291C0022002316
:103B400004F068FB002801D0079B0993099B079AA2
:103B5000934204D25A1C099230221A70F6E7381C9C
:103B6000099B159ADB1B13600BB0F0BDF7B52B2337
:103B7000071C0C1C0270861C002901DA2D234C4204
:103B80007B70092C1CDD6B46DD1D201C0A21FFF714
:103B900091F9013D30312970201C0A21FFF7A4F86A
:103BA000041E092CF1DC013D30342C706B460733C8
:103BB000301CAB4209D92B78013533700136F5E75B
:103BC0003023E4183370B01C7470C01BFEBD0000BD
:103BD000F0B593B00C1C08920993189E051C03F0D5
:103BE00051FB0368181C0B9301F0AEF80023216809
:103BF00010930C90277E33680722C90501D59B18C6
:103C000000E0073393431A1C083232601A685B687D
:103C1000A264E364A06CE16C00F0F4FE012818D10A
:103C2000A06CE16C0022002304F0FAFA002803D013
:103C3000231C2D2243331A70B64B0A93472F01D908
:103C4000B54B0A9303232268236101339A43226010
:103C500012E0A06CE16C00F0D5FE266800280DD1C2
:103C6000AE4B0A93472F01D9AD4B0A930323311C66
:103C70002361013399432160002680E08021606840
:103C8000C900431C01D1062309E0A26CE36C672F35
:103C900001D0472F04D1002800D0C0E10123636088
:103CA000636831430093232321600191002106AA18
:103CB0009B1802930FAB039310AB05930497A26C70
:103CC000E36C0691281CFFF7EDFE20233A1C0A90B6
:103CD0009A43472A07D10F9BDA1C02DB62689342A2
:103CE0002DDD023FFFB20F99652F12D8201C01393C
:103CF0003A1C50300F91FFF739FF109A061C8318B9
:103D00002361012A02DC2268D2072ED50133236108
:103D10002BE0662F14D16368002908DD2161002B98
:103D200002D12268D2071DD50133CB1811E0002B38
:103D300003D101222168114213D09A1C11E0672798
:103D40000F9B1098834206DB22682361D20709D5B6
:103D50000133236106E00122002B01DC0221CA1A93
:103D60008218226100260F9BA365232306AA9B18B5
:103D70001B78002B03D0231C2D2243331A70099B80
:103D8000281C0093211C089B11AA00F05FF9431C1A
:103D900002D10120404256E12268530504D4281C78
:103DA00008990A9A236916E1652F00D8D4E0A06C1F
:103DB000E16C0022002304F02DFA00282BD001230F
:103DC000281C0899574A099EB047431CE1D00F9B15
:103DD000109A934207DB2368DB0704D423689B0710
:103DE00000D51AE113E1099E281C08990B9A0C9B37
:103DF000B0470026431CCCD0109B013B9E42EDDA1D
:103E0000221C0123281C08991A32099FB847431C19
:103E1000BFD00136F0E70F9B002B2BDC0123281CC1
:103E20000899404A099EB047431CB2D00F9B002B13
:103E300005D1109B002B02D12368DB07CED5099E4C
:103E4000281C08990B9A0C9BB0470026431CA0D055
:103E50000F9B281C5B4208999E4208DA221C012312
:103E60001A32099FB847431C93D00136F0E70A9AEB
:103E7000109BB0E0109BA66D9E4200DD1E1C002E24
:103E800001DC002314E0331C281C08990A9A099FBE
:103E9000B847431CF5D17CE7221C0123281C089954
:103EA0001A32099FB847431C00D172E70D9B0133BA
:103EB0000D93F343A26DDB170D993340D31A99424A
:103EC000EADB0A9B9E180F9B109A93420EDB236835
:103ED000DB070BD4109B0A9AD7180F9ABF1B9B1AAB
:103EE0009F4200DD1F1C002F09DC11E00C9B281CE9
:103EF00008990B9A099FB847431CEBD149E7321C3C
:103F00003B1C281C0899099EB047431C00D140E780
:103F1000002315E0C1AA0000C5AA0000C9AA00003C
:103F2000CDAA00001AAB0000221C0123281C08990E
:103F30001A32099EB047431C00D12AE70A9B01337D
:103F40000A930F9A109B9A1AFB43DB173B40D31A34
:103F50000A9A9A42E8DB41E7109B281C0899012B3A
:103F600002DC01231A423CD001230A9A099FB84778
:103F7000431C00D10DE70C9B281C08990B9A099F44
:103F8000B847431C00D104E7A06CE16C0023002279
:103F900004F040F90023002812D10A9A109B013244
:103FA000013B281C08991DE0221C0123281C0899AC
:103FB0001A32099FB847431C00D1EAE60A9B013335
:103FC0000A93109B0A9A013B9A42EDDB221C281CA3
:103FD000331C08995032099EB047431C00D0FDE6BF
:103FE000D7E60A9A099FB847431CEFD1D1E6221CB5
:103FF0000123281C08991932099FB847431C00D196
:10400000C7E60136E368119A9B1A9E42EFDB119BCB
:10401000E068984217DA181C15E00026F2E73143F1
:10402000216001912321009006A8091802910FA98F
:10403000039110A90591002104970691281CFFF710
:1040400031FD0A9047E613B0F0BDC046F7B5171C26
:1040500001930A698B6800900C1C934200DA131CD0
:10406000221C3B6043321278002A01D001333B60AE
:1040700023689B0602D53B6802333B600625236814
:104080001D401ED0231C43331B785A1E93412268C7
:1040900092061CD53020E1184031C870211C5A1CF2
:1040A00045310978A21840320233D1700FE0221C4A
:1040B0000123009801991932089EB047431C0ED085
:1040C0000135E3683A689B1A9D42F0DBDAE7221C6F
:1040D000009801994332089DA847431C02D1012052
:1040E000404220E006232068E1683A68034000254A
:1040F000042B03D18D1AEB43DB171D40A368226903
:10410000934201DD9B1AED180027AF420ADA221C08
:104110000123009801991A32089EB047431CDED053
:104120000137F2E70020FEBDF0B58BB006920A1C05
:1041300043320793059004920A7E0C1C109B6E2A52
:1041400000D1A8E011D8632A22D009D8002A00D1D2
:10415000B2E0582A00D0C2E045310A707C4A4FE0F4
:10416000642A1DD0692A1BD0B9E0732A00D1A7E0C8
:1041700009D86F2A29D0702A00D0B0E0202209681F
:104180000A43226037E0752A1FD0782A33D0A6E090
:104190000E1C1A684236111D196013683370A1E0B5
:1041A00021681A68080606D4490604D5111D19604D
:1041B0000023D55E02E0111D19601568002D3BDA61
:1041C0002D23049A6D42137036E021681A680806A0
:1041D00006D4490604D51568111D1960ADB202E078
:1041E000111D196015685A4B227E03930A276F2A06
:1041F0001DD108271BE0221C782145321170554A39
:1042000019680392081D226818600D68100602D410
:10421000500600D5ADB2D30702D520231A43226041
:104220001027002D03D1202322689A432260231CEB
:10423000002243331A7002E00A27454B0393636858
:10424000A360002B03DB0422216891432160002D31
:1042500002D1049E002B0ED0049E281C391CFEF7B0
:1042600039FD039B013E5B5C281C3370391CFEF753
:10427000ABFC051EF1D1082F09D12368DB0706D559
:1042800063682269934202DC3023013E3370049B51
:104290009B1B23612BE009681A68080607D44906AE
:1042A00005D5111D19601368A28A1A8004E0111D3A
:1042B0001960136862691A600023049E236116E086
:1042C0001A68111D196016680021301C6268FFF71A
:1042D000E9F9002801D0801B6060636803E0261CB8
:1042E00042363270012323610023049A1370079B26
:1042F00005980093211C069B09AAFFF7A7FE431C03
:1043000002D10120404221E0236905980699321C20
:10431000079DA847431CF4D023689B0705D4099B3D
:10432000E068984212DA181C10E00025E368099A48
:104330009B1A9D42F3DA221C012305980699193233
:10434000079EB047431CDCD00135EFE70BB0F0BD52
:10435000D1AA0000E2AA0000F0B5151C00228BB023
:1043600006938B6805925D320E1CFF32591E029037
:10437000914205D95E3BFF3B05935E23FF33B3605B
:10438000F0233268DB0013433360331C00241C33FA
:104390001F1C049303940994089400940794B26832
:1043A000002A00D1E1E02B681B78492B77D018D880
:1043B000392B0DD8312B42D22D2B49D002D82B2BA3
:1043C00046D0D2E02E2B00D18DE0302B25D0CCE092
:1043D000452B00D190E0462B79D0412B00D0C4E092
:1043E00058E0652B00D187E00AD8542B73D002D84F
:1043F0004E2B35D0B9E0592B71D0612B4AD0B4E0A7
:104400006E2B2DD004D8662B61D0692B47D0ACE041
:10441000742B60D0792B62D0A7E03168C8050ED527
:1044200080239943009B316001330093059B002B4F
:1044300000D182E0013B01320593B2607DE0039A36
:104440001219002A00D090E0B34A31680A4005E012
:10445000802132680A4200D187E08A4332606AE0F4
:10446000039A002A0ED1009A002A0ED13168E02268
:10447000081CD2001040904207D1A84A0A4032607E
:10448000012257E0039A022A53D0012C1CD0042C9D
:104490001AD06AE0039A012A67D102224AE0002C6E
:1044A0000ED1009A002A63D13168E022081CD200A4
:1044B0001040904260D1994A01340A4032603AE09B
:1044C000FD21E21E0A4250D10134E4B233E0022C55
:1044D0004BD103242FE0062C47D107242BE0072CD7
:1044E00043D1082427E031688A053ED58C4A0A402A
:1044F0003260009A07921EE0A02280203168D2002C
:104500000A40C000824204D001422ED0009A002A04
:1045100032D08A0504D4009A07980997121A089293
:104520007E4A0A40C02149000A43326000220092BC
:1045300001E0032203923B700137B368013BB36093
:104540003369013333616B68013B6B60002B03DD22
:104550002B6801332B6022E7C0235B00F3580298DD
:10456000291C9847002800D119E7009B002B03D095
:1045700032686C4B13403360039B013B012B10D816
:10458000049B9F420BD9BE23013F5B00F35839784F
:1045900002982A1C98473369013B3361F0E70124F4
:1045A000B7E0631E062B2AD8022C19D9059403976D
:1045B000059B013BDBB20593022B0DD0039B0298B8
:1045C000013B03931978BE235B00F3582A1C9847DC
:1045D0003369013B3361EBE7033CE4B23F1B0EE080
:1045E000049B9F42DBD9BE23013F5B00F35839781F
:1045F00002982A1C98473369013B3361F0E733681E
:10460000DA052BD55B050ED5049B9F42C7D9BE2387
:10461000013F5B00F358397802982A1C98473369A8
:10462000013B3361F0E733697C1E2178013B336144
:1046300065290CD045290AD0BE235B00F3580298A7
:104640002A1C98473369BC1E013B21783361BE2385
:104650005B00F35802982A1C9847271C10243368E3
:104660001C4055D1C0233C703268DB0013408022CF
:10467000D200934206D1079A009B9B1A5A42002B04
:104680000DD118E0089B002B15D0099B221C591C4A
:1046900002980A2301F0B8F9089B099FC21A331C3B
:1046A0007033FF339F4202D3371C6F37FF37381CFC
:1046B0001D4900F0A7FA00220298049900F08AFB35
:1046C000069B3268009001911B68910701D4520744
:1046D00008D506991A1D0A601B680099019A19608D
:1046E0005A6011E006991A1D0A60009801991D6828
:1046F00000F088F9002802D100F080FA03E0009869
:10470000019905F0F1FB2860F3680133F36000E0E4
:104710000024201C0BB0F0BD7FFEFFFF7FF8FFFFE1
:104720007FFDFFFFFFFEFFFFF3AA0000F7B5151C9A
:104730008A6801900C1C002A06D18A69511E8A41A0
:10474000012152420A43A2602268D20603D41A68A9
:10475000111D196017680026A06900281DD1236863
:104760000136DB0603D42B681B783B7001372A68BF
:104770006B6801322A60A268013B013A6B60A2605B
:10478000002A1FD0002BE7DCC0235B00E358019810
:10479000291C98470028DFD014E0012808D12B6895
:1047A00062691B78D35C002BD9D1002E19D009E0A7
:1047B000022807D12B680B4A1B781268D3185B7844
:1047C0001B07CCD510232268134006D1E2680132C2
:1047D000E260A269002A00D03B70002023699E1984
:1047E0002661FEBD20010020F0B50C1C8BB00193AA
:1047F000744B0490161C07AA23CB23C2724B05935B
:10480000A369032B01D0714B05930022A368039287
:104810005D32591EFF32914205D95E3BFF3B039347
:104820005E23FF33A360231C1C330093D023002797
:1048300022681B0113432360009B02933268BB0074
:10484000117807AA98580222FEF72CFF002839D0C9
:10485000012F0DD16368002B06D1083322686360F5
:10486000F933FF3313432360594B226813400DE0A3
:10487000022F0CD1C02280212368D2001A40890067
:104880008A4222D110226260F03213432360A3686F
:104890005A1EA260002B15D0029B5D1C33685A1C67
:1048A00032601B78029A029513707368013B736043
:1048B000002B07DCC0235B00E3580498311C9847A9
:1048C000002844D10137032FB8D16368002B01D1F0
:1048D0000A3363601021002763686069C91A3D4B81
:1048E000C91800F0C9F8029DA368002B30D03268C7
:1048F00060691178405C00282AD030290BD12168EA
:10490000090508D5039A0137002A0BD0013A013373
:104910000392A36006E021682F4B0B4023601378BD
:104920002B7001357368013B7360002B03DD336826
:104930000133336007E0C0235B00E3580498311C67
:104940009847002804D1A368013BA360CCE7002767
:104950002368DB050ED5009B9D4207D9BE23013D90
:104960005B002978E3580498321C9847009B01208B
:104970009D4225D0102223681A401AD12A706368FC
:1049800004980099059EB047019B22681B68910618
:1049900007D4D10705D501991A1D0A601B68188034
:1049A00004E001991A1D0A601B681860E36801336E
:1049B000E3600020009BED1A2369ED195D19256164
:1049C0000BB0F0BDF8AA0000095A0000295B0000F6
:1049D000FFFAFFFF04AB0000FFF6FFFF38B5051C30
:1049E0000020074C2060081C111C1A1CFBF770FDEE
:1049F000431C03D12368002B00D02B6038BDC04678
:104A0000A404002030B50C1C0223044317D08024DA
:104A10002406A14201D1002811D00A4B49004908BF
:104A2000094ACC180423944209D9084A013B91420F
:104A300005D9074A0023914201D143424341181C42
:104A400030BDC0460000F0FFFFFFDF7FFFFF0F001B
:104A50000000F07F38B50023064C051C081C2360BD
:104A6000FBF75EFE431C03D12368002B00D02B60B4
:104A700038BDC046A4040020F0B50A785E2A02D0F2
:104A80004B1C002402E001244A788B1C011C451CAD
:104A9000FF350C700131A942FBD1002A01D1581E0B
:104AA0001CE001210C1BE7B2875419785E1C2D29EC
:104AB00006D05D290FD000290FD00A1C331CF2E765
:104AC0005D785D2DF9D09542F7DB023301328754D2
:104AD000AA42FBDBE9E7301C00E0181CF0BD08B57A
:104AE0004A424A4180235200DB0000F001F808BD31
:104AF000F7B51E1C3C4B041C1D680F1C0192002DB9
:104B000005D0AB69002B02D1281CFEF7BFFB374B49
:104B10009C4201D16C6808E0354B9C4201D1AC68E5
:104B200003E0344B9C4200D1EC68019B022B58D827
:104B3000002E56DB281C211CFEF726FB0023636099
:104B4000A361A3891B0603D5281C2169FEF7C6FDB6
:104B50008322A3899343A381019B022B13D0002FAF
:104B600025D1002E01D18026F600301CFEF786FDEF
:104B7000071E18D18020C000FEF780FD071E10D14F
:104B80000120404200E000200222A3891343A381B8
:104B90000023A360231C4733236023610123636147
:104BA00021E08026F6008022A3891343A381019B84
:104BB000012B05D1A389019A1A437342A281A361F3
:104BC0000D4B0020AB62A289276027616661130745
:104BD00009D503231A40534253415B421E40A6604D
:104BE00001E001204042FEBD1C01002048AA000057
:104BF00068AA000088AA0000093200000048704737
:104C00000000C07F0EB410B59DB002A902900861EB
:104C10000B48822488604861012040421FABC88154
:104C2000084804CBA400006801938C8102F0EEFFD9
:104C30000023029A13701DB010BC08BC03B01847C3
:104C4000FFFFFF7F1C0100200EB4812370B59DB0D3
:104C500002AC21AD9B0040CDA3810290069000F0F4
:104C600073F80B4B6060636200236363A364013BD2
:104C7000E381084B6061211C1868321C2B1C0195D4
:104C800003F016F91DB070BC08BC03B01847C0464D
:104C9000C14C00001C01002038B50C1C0E25495FDA
:104CA00003F07EFA002803DB636D1B18636503E0E5
:104CB000A289024B1340A38138BDC046FFEFFFFF1E
:104CC00000207047F8B51E1C8B89051C0C1C171C96
:104CD000DB0505D50E23C95E0022022302F0D6FAB9
:104CE000A289054B281C1340A3813A1C0E23E15EC8
:104CF000331C01F031F8F8BDFFEFFFFF38B50C1C95
:104D00000E25495F02F0C2FAA389421C03D1054A6D
:104D10001340A38104E0802252011343A381606504
:104D200038BDC046FFEFFFFF08B50E23C95E01F096
:104D30009BF808BD02780B78002A03D001300131BE
:104D40009A42F7D0D01A70470023C25C0133002A80
:104D5000FBD1581E7047002330B59A420DD0013A5E
:104D6000C45CCD5CAC4202D1934202D1251C631BD2
:104D700003E00133002CF3D1F8E7181C30BD30B547
:104D800003680C780133002C0AD01A78151C413DB9
:104D9000192D00D820320131A242F2D0002001E0CA
:104DA0000360012030BD000070B5161C0D1C02F020
:104DB0006DFD002E0BD06B226B005B0DD31A002B08
:104DC00005DD034D1C050022631904F0D5F970BD03
:104DD0000000F03F0023F0B5A3B01E93002600278B
:104DE0000B1C0390069119921D931D9B1A780D2A96
:104DF00005D8092A14D2002A00D1C3E112E02B2AD7
:104E000006D02D2A02D0202A0CD109E0012200E090
:104E100000220D925A1C1D925B78002B04D1B1E147
:104E20000133E1E700230D9300221D9D0A922B78A8
:104E3000302B5DD16B78582B01D0782B4CD11EAB29
:104E400000930D9B039801931DA9C24A1FAB01F06B
:104E500038FF07240490044001D100F0A7FD062C80
:104E600005D1002301351D950D9300F09FFD1E9A7D
:104E7000002A07D020A8352102F0FCFD03981E99D6
:104E800002F064FA1F9B062C1CD8201C03F0A8F922
:104E9000040A0714170A040000273E1C12E0209E93
:104EA000219F0FE0AC4A21999B18AC4A1B050A4090
:104EB0001343209E1F1C05E0A94F002602E0012697
:104EC000A84F7642049B1B0701D400F06FFD80239E
:104ED0001B061F4300F06AFD1D9B5A1C1D925B7848
:104EE000302BF9D0002B01D100F060FD01230A9393
:104EF0001D9B0C9300230593079304931D9C23781B
:104F00001A1C303A0893D3B2092B12D804990A23F9
:104F1000082904DC07994B43D318079303E005994C
:104F20004B43D3180593049B0134013304931D9420
:104F3000E4E7039802F0A6F90568039802F0A2F9E5
:104F40000068FFF701FF291C021C201CFFF703FF6C
:104F5000051E05D00020089B049C011C08905AE007
:104F6000039802F08FF90068FFF7EEFE1D9B049A8C
:104F700018181D900378101E41D1302B05D11D9BB0
:104F800001305A1C1D925B78F7E71A1C313A082A47
:104F90003DD8011C0020041C1D9A0C92303B421C81
:104FA000002B26D08918221C001982420FD0013212
:104FB000541E082C04DC0A24079D65430795F4E77A
:104FC000102AF2DC0A24059D65430595EDE7541C83
:104FD000082A06DC0A2207984243D31807930022C6
:104FE00007E00022102C04DC0A20059D6843C3184A
:104FF00005931D9B581C1D905B78101C02E0281C1B
:10500000291C049C1A1C303A092AC7D901E0002443
:10501000211C0122089220221D1C95430022452DAF
:1050200057D1231C0A9D03432B43934200D1A9E08F
:105030001D9B069301331D93069B5B782B2B06D09B
:105040002D2B01D0099208E00123099300E0099279
:10505000069B02331D93069B9B781A1C303A092A43
:1050600034D8302B04D11D9B5A1C1D925B78F8E775
:1050700031256D42AC469C4465460022082D28D857
:10508000303B0B931D9B0E9330256D42AC461D9B10
:105090005A1C1D925B789C446546092D06D80A224D
:1050A0000B9D6A43D318303B0B93EDE70E9D521BCB
:1050B000151E2D4A9446082D03DC0B9A624500DD2F
:1050C0006246099D002D04D0524202E0069A1D92CC
:1050D0000022002C61D10A9A104301D000F066FC36
:1050E000089A002A4ED14E2B1CD002DC492B05D049
:1050F00048E0692B02D06E2B14D043E01DA81B4959
:10510000FFF73DFE00283DD01D9B1DA8013B18491F
:105110001D93FFF734FE002802D11D9B01331D9320
:105120000F4F2CE01DA81349FFF729FE002829D0B6
:105130001D9B1B78282B21D11DA80F4920AA01F007
:10514000F6FF05281AD1219B054A209E1A43171CF9
:1051500000F02CFC60AB000033040000FFFFEFFF09
:105160000000F07FFFFFFF7F1F4E0000C6AA000077
:1051700078AC0000CEAA000020AB0000924F0026C1
:1051800000F014FC069B1D9300230D93199B002B2C
:1051900001D000F00EFC00F017FC531A0993049B99
:1051A000002B00D10494251E102D00DD102507983A
:1051B00004F068FE061C0F1C092D15DD2B1C834A0C
:1051C000093BDB00D3181A685B6803F0D5FF061CA7
:1051D00005980F1C04F056FE021C0B1C301C391CD9
:1051E00003F064F8061C0F1C0F2C37DC099B002B06
:1051F00000D1DBE324DD162B07DC7449DA008A18C2
:10520000106851683B1C321C15E02523099A1B1BB2
:105210009A4223DC0F226D4D141BE300EB18186833
:105220005968321C3B1C03F0A7FF099B1C1BE400C0
:105230002D192A686B6803F09FFF061C0F1CB5E34D
:10524000099B16330ADB099B301CDA005F4B391CC3
:105250009A1A5368126803F051FBEEE7099B651B2D
:105260005D19002D59DD0F232B400AD0574ADB0072
:10527000D31818685968321C3B1C03F07DFF061CCC
:105280000F1C0F239D4300D1B0E02633FF339D4216
:105290000EDD0023049305930B930893222300262D
:1052A000039A4B4F13600B9BB34200D06AE37DE33C
:1052B0000023301C391C2D110593012D0EDDEB0749
:1052C00007D5059BDA00434BD3181A685B6803F0D7
:1052D00053FF059B6D1001330593EEE7061C3E4B13
:1052E000CF18059BDA003B4B9B1818685968321C95
:1052F0003B1C03F041FF364B0F1C0B403749061C8B
:105300008B42C6D836498B4203D90126354F7642A7
:105310006CE0D4239B04FF1868E0002D66D00F23B7
:105320006D422B400AD0294ADB00D318301C1A6882
:105330005B68391C03F0E2FA061C0F1C2D1155D0D6
:105340001F2D05DD0023049305930B93089318E1AB
:1053500000230693EB0601D56A230693391C301C03
:10536000214E002D08DDEB0703D53268736803F08A
:1053700003FF6D100836F4E7069B061C0F1C002B7C
:1053800019D06B224B005B0D081CD31A002B12DDC9
:105390001F2B0CDD0026342B02DDDC27BF040AE0C6
:1053A0000122203B52429A401040071C03E0012298
:1053B00052429A401640301C391C0022002302F051
:1053C00029FF0028BED113E00000F8FF90AC0000D8
:1053D0000000F07F58AD00000000B0FC0000A07C91
:1053E0000000907CFFFFEF7F38AB000000230693A6
:1053F000079B039800930C99049A231C01F0FBFF70
:105400000B90002800D144E7099B099A5B42D21710
:10541000134013930023049305930B9B039859683F
:1054200001F05CFF0890002800D137E70B9B0B9937
:105430001B690C319A1C92000C300793FEF73DF962
:105440001FAB009320AB01930398321C3B1C0E96BC
:105450000F9702F091FA1E90002800D11EE70398E2
:10546000012102F052F80590002800D116E7002330
:10547000099A0A93934200DA0A921F9B002B00DAE2
:1054800089E0139A0A9CD518069A20999B1A36220D
:105490005B18521AC84901208B4200DB85E0C91A0B
:1054A000521A1F297BDC8840002318901293AB18F6
:1054B0000793069BA418E418079BAB4200DD2B1C46
:1054C000A34200DD231C002B04DD079AE41AD21A44
:1054D0000792ED1A139B002B6BD1079B002B00DD6D
:1054E00080E00A9B002B00D086E0002C00DD8DE0E0
:1054F000002D00DD94E003981E99089A02F05BF9F4
:105500000490002800D1C9E60022C3680599C26052
:105510000C9302F035F9002800DB91E00C9B002B86
:1055200000D01AE2002E00D017E23B0300D014E2B4
:10553000D622A24BD2043B40934200D80DE2049BFA
:105540005B690793002B75D004990398012202F040
:10555000C5F80599049002F013F9002800DCFCE17D
:10556000069A964B002A00D19AE01A1CD6213A409E
:10557000C9048A4200DD93E0DC239B049A4200DDEB
:10558000EEE12223039A002613600B9B0027002BD9
:1055900000D0F7E10AE20A9A139DD41A74E7884909
:1055A000CB1A011C9940129101E00023129318902C
:1055B0007DE71A1C0398059902F03EF80590031E3A
:1055C00000D16BE60398191C1E9A01F0A7FF0C90FE
:1055D000002800D162E603981E9901F0B7FE0C9BEB
:1055E0001E937AE703981E99079A02F077F81E90A7
:1055F000002800D075E751E6039808990A9A02F04E
:105600001BF80890002800D06FE747E60398089938
:10561000221C02F063F80890002800D068E73DE6FD
:10562000039805992A1C02F059F80590002800D02B
:1056300061E733E6049B1B690793012B84DC8CE153
:10564000002864D10C9A3B03002A24D05D4A391CFF
:105650001B0B93422DD1069A0138341C031C002ADF
:105660000AD0D425554AED043A40AA4204D86C33F6
:10567000120D9A1A031C93409C421AD1524B994224
:1056800002D1631C00D109E64C4B0026194080234F
:105690005B03CF1861E1002B0BD1002E09D15FE72E
:1056A00001264A4A3B409B18464A76421A43171C39
:1056B00053E1129B002B03D03B4200D14DE103E0AC
:1056C000189B334200D148E10C9B301C391C069AD0
:1056D000002B0AD0FFF768FB021C0B1C0E980F99D9
:1056E00002F0E4FD061C0F1C37E1FFF75DFB021C16
:1056F0000B1C0E980F9903F0D9FF00220023061C03
:105700000F1C02F087FD002800D03AE725E104983D
:10571000059902F085F980230022DB05041C0D1C8D
:1057200002F088FD002836D00C9B002B02D000240C
:10573000274D0BE0002E02D13B0305D10BE0012EDB
:1057400002D1002F00D11CE70024224D0023079333
:105750001F4B0A9348E0201C291C00221C4B02F01E
:105760005FFD002808D1201C291C00221A4B03F0E1
:1057700003FD07900A9103E00C9B0793164B0A93D5
:10578000802212069446079B1A930A9B63441B933C
:105790001A9C1B9D28E0104B201C291C002203F0A2
:1057A000EBFC0C9B07900A91002B17D180231B0662
:1057B000CB181490159315E003FCFFFF0000F07F59
:1057C000E3FBFFFFFFFF0F00FFFFEF7F0000F0FF95
:1057D0000000F03F0000F0BF0000E03F079A0A9B86
:1057E00014921593149C159D7A4B3B401293129A78
:1057F000794B9A422BD10E9A0F9B10921193774BB3
:10580000301CFF18391C02F041F8021C0B1C201C34
:10581000291C03F0B1FC021C0B1C301C391C02F0CB
:1058200045FD6C4B6E4A061C0B4093420BD96D4BE9
:10583000119A9A4203D1109B013300D12EE5012623
:10584000684F764278E0D4239B04CF1840E0069B53
:10585000002B2BD0D423129ADB049A4226D8079827
:105860000A99614A614B02F0E5FC002819D00798BB
:105870000A9902F0FDFC002800D1013004F002FB7F
:105880000C9B07900A91002B05D180231B06CB1897
:105890001690179303E0079A0A9B16921793169C8B
:1058A000179DD623129ADB04EB189D1A0E980F99B8
:1058B00001F0ECFF021C0B1C201C291C03F05CFCFB
:1058C000021C0B1C0E980F9902F0F0FC061C0F1C1A
:1058D000069B0E97002B2FD13E4B129A3B409A42CB
:1058E0002AD10A99079804F05BFA04F08FFA0B1C8E
:1058F000021C0A99079803F0D9FE0C9B041C0D1C8E
:10590000002B04D1002E02D10E9B1B030ED0201CB5
:10591000291C374A374B02F083FC002832D1201C67
:10592000291C354A354B02F08FFC03E0304A344BDA
:1059300002F076FC002825D103981E9901F006FD9F
:105940000398089901F002FD0398059901F0FEFC07
:105950000398049901F0FAFC5FE5069B002B11D037
:10596000284B301C119300231093391C109A119B63
:1059700003F002FC061C0F1E04D1002802D12223D2
:10598000039A136003981E9901F0E0FC03980899AC
:1059900001F0DCFC0398059901F0D8FC03980B9901
:1059A00001F0D4FC0398049901F0D0FC199B002B62
:1059B00002D0199B1D9A1A600D9B002B04D08023E6
:1059C0001B06321CFB1801E0321C3B1C101C191C6E
:1059D00023B0F0BD0000F07F0000E07F0000B0FCCD
:1059E000FFFF9F7CFFFFEF7F0000C0FFFFFFDF4155
:1059F0009535A094FFFFDF3F35E5AF350000E03F70
:105A0000FFFFCF3F00005039F0B51E1C444B87B05C
:105A10001B68059002930B1C039101921C78029A5B
:105A20005D1C121950780822104001D02B1CF5E79C
:105A30002D2C04D19D1C5C780123009304E0009080
:105A40002B2C01D15C789D1C002E02D0102E0AD187
:105A500060E0302C5CD120222B789343582B52D11C
:105A600010266C780235009F311C7B1E9F412D4B08
:105A7000FF18381CFDF72EF9381C0491311CFDF776
:105A8000A3F80022071C131C02990919497848073A
:105A900001D5303C07E00320084017D0372101280A
:105AA00000D02031641AB44210DA511C0BD0BB4232
:105AB00007D802D1049A944203DC73430122E3180D
:105AC00001E0012252422C780135DDE7181C511CFF
:105AD0000BD10098059A431E9841124BC0182223FF
